:020000040800F2
:1000000000200020E9A10008CDA00008D7A000082A
:1000100000000000000000000000000000000000E0
:10002000000000000000000000000000DDA000084B
:100030000000000000000000E7A00008F1A0000898
:1000400039A2000839A2000839A2000839A2000824
:1000500039A2000839A2000839A20008FFA0000850
:1000600039A2000839A2000839A2000839A2000804
:1000700039A2000839A2000839A2000839A20008F4
:1000800039A2000839A200080000000039A20008C7
:1000900039A2000839A2000839A2000839A20008D4
:1000A00039A2000839A2000839A2000839A20008C4
:1000B00039A200080000000039A20008000000007A
:1000C00010B5064C2378002B07D1054B002B02D02E
:1000D000044800E000BF0123237010BDE0000020B1
:1000E00000000000D4AA0008044B10B5002B03D078
:1000F0000349044800E000BF10BDC04600000000F6
:10010000E4000020D4AA000802780B78002A03D06B
:10011000013001319A42F7D0D01A70470023C25CF7
:100120000133002AFBD1581E70470000002243080B
:100130008B4274D303098B425FD3030A8B4244D3AF
:10014000030B8B4228D3030C8B420DD3FF220902F1
:1001500012BA030C8B4202D31212090265D0030BB0
:100160008B4219D300E0090AC30B8B4201D3CB03A6
:10017000C01A5241830B8B4201D38B03C01A5241E8
:10018000430B8B4201D34B03C01A5241030B8B42EA
:1001900001D30B03C01A5241C30A8B4201D3CB02D5
:1001A000C01A5241830A8B4201D38B02C01A5241BA
:1001B000430A8B4201D34B02C01A5241030A8B42BD
:1001C00001D30B02C01A5241CDD2C3098B4201D3D5
:1001D000CB01C01A524183098B4201D38B01C01A53
:1001E000524143098B4201D34B01C01A52410309CA
:1001F0008B4201D30B01C01A5241C3088B4201D379
:10020000CB00C01A524183088B4201D38B00C01A25
:10021000524143088B4201D34B00C01A5241411A4C
:1002200000D20146524110467047FFE701B5002059
:1002300000F0F0F802BDC0460029F7D076E770471D
:1002400003460B437FD4002243088B4274D3030937
:100250008B425FD3030A8B4244D3030B8B4228D3D8
:10026000030C8B420DD3FF22090212BA030C8B42FE
:1002700002D31212090265D0030B8B4219D300E09E
:10028000090AC30B8B4201D3CB03C01A5241830B23
:100290008B4201D38B03C01A5241430B8B4201D3D3
:1002A0004B03C01A5241030B8B4201D30B03C01AFC
:1002B0005241C30A8B4201D3CB02C01A5241830A76
:1002C0008B4201D38B02C01A5241430A8B4201D3A5
:1002D0004B02C01A5241030A8B4201D30B02C01ACF
:1002E0005241CDD2C3098B4201D3CB01C01A524136
:1002F00083098B4201D38B01C01A524143098B42BF
:1003000001D34B01C01A524103098B4201D30B01A7
:10031000C01A5241C3088B4201D3CB00C01A5241CC
:1003200083088B4201D38B00C01A524143088B4291
:1003300001D34B00C01A5241411A00D2014652412A
:10034000104670475DE0CA0F00D04942031000D349
:100350004042534000229C4603098B422DD3030A9E
:100360008B4212D3FC22890112BA030A8B420CD3AE
:10037000890192118B4208D3890192118B4204D3D7
:1003800089013AD0921100E08909C3098B4201D357
:10039000CB01C01A524183098B4201D38B01C01A91
:1003A000524143098B4201D34B01C01A5241030908
:1003B0008B4201D30B01C01A5241C3088B4201D3B7
:1003C000CB00C01A524183088B4201D38B00C01A64
:1003D0005241D9D243088B4201D34B00C01A52413B
:1003E000411A00D20146634652415B10104601D3C8
:1003F0004042002B00D54942704763465B1000D352
:10040000404201B5002000F005F802BD0029F8D0F7
:1004100016E770477047C04680B500AF074B1A68B3
:10042000064B10210A431A60002000F009F809F079
:100430009FFD00231800BD4680BDC046002002403D
:1004400090B583B000AF7860144B1C68144B1B78D8
:100450001900FA239800FFF769FE03001900200035
:10046000FFF764FE0300180000F02DF9031E01D011
:1004700001230FE07B68032B0BD8796801235B42D3
:100480000022180000F0FAF8064B7A681A60002380
:1004900000E001231800BD4603B090BD60000020BD
:1004A000040000200000002080B500AF054B1B7841
:1004B0001A00054B1B68D218034B1A60C046BD4694
:1004C00080BDC046040000209403002080B500AF2A
:1004D000024B1B681800BD4680BDC0469403002037
:1004E00080B584B000AF7860FFF7F0FF0300BB6019
:1004F0007B68FB60FB68013305D0094B1B781A0051
:10050000FB689B18FB60C046FFF7E0FF0200BB687A
:10051000D31AFA689A42F7D8C046BD4604B080BDE7
:100520000400002080B582B000AF0200FB1D1A70ED
:10053000FB1D1B787F2B09D8FB1D1B781A001F237E
:100540001A40044B012191400A001A60C046BD4682
:1005500002B080BD00E100E090B583B000AF0200C2
:100560003960FB1D1A70FB1D1B787F2B28D82F4A82
:10057000FB1D1B785BB29B08C0339B009B58FA1D88
:100580001278110003220A40D200FF2191400A0094
:10059000D2431A4011003B689B01FF221A40FB1D09
:1005A0001B78180003230340DB009A401F48FB1D03
:1005B0001B785BB29B080A43C0339B001A5031E0A2
:1005C0001B4AFB1D1B7819000F230B40083B9B089F
:1005D00006339B00D31804331B68FA1D12781100F0
:1005E00003220A40D200FF2191400A00D2431A4060
:1005F00011003B689B01FF221A40FB1D1B7818006D
:1006000003230340DB009A400948FB1D1B781C00B4
:100610000F232340083B9B080A4306339B00C31863
:1006200004331A60C046BD4603B090BD00E100E04F
:1006300000ED00E080B582B000AF78607B68013BE0
:100640000C4A934201D9012310E00B4B7A68013A1E
:100650005A6001235B4203211800FFF77DFF064B20
:1006600000229A60044B07221A6000231800BD463E
:1006700002B080BDFFFFFF0010E000E080B584B055
:1006800000AFB9607A600F217B18021C1A70BA683B
:100690007B181B785BB211001800FFF75DFFC046A6
:1006A000BD4604B080BD80B582B000AF0200FB1D26
:1006B0001A70FB1D1B785BB21800FFF733FFC046B2
:1006C000BD4602B080BD80B582B000AF78607B6867
:1006D0001800FFF7AFFF03001800BD4602B080BD51
:1006E00080B586B000AF7860396000237B614FE150
:1006F0003B681B6801217A6991400A001340FB6046
:10070000FB68002B00D140E13B685B68032213408B
:10071000012B05D03B685B6803221340022B30D1CC
:100720007B689B683B617B695B0003229A401300F6
:10073000DA433B6913403B613B68DA687B695B00E5
:100740009A4013003A6913433B617B683A699A60A7
:100750007B685B683B6101227B699A401300DA4346
:100760003B6913403B613B685B681B0901221A40EF
:100770007B699A4013003A6913433B617B683A698D
:100780005A603B685B6803221340032B17D07B68D9
:10079000DB683B617B695B0003229A401300DA430C
:1007A0003B6913403B613B689A687B695B009A40F8
:1007B00013003A6913433B617B683A69DA603B682E
:1007C0005B6803221340022B23D17B69DA087B6824
:1007D00008329200D3583B617B69072213409B008B
:1007E0000F229A401300DA433B6913403B613B6898
:1007F0001A697B6907210B409B009A4013003A69F4
:1008000013433B617B69DA087B68083292003969DF
:10081000D1507B681B683B617B695B0003229A4077
:100820001300DA433B6913403B613B685B6803227A
:100830001A407B695B009A4013003A6913433B619D
:100840007B683A691A603B685A68C0239B02134070
:1008500000D19AE0544B9A69534B01210A439A61A3
:10086000514B9B6901221340BB60BB684F4A7B69B7
:100870009B0802339B009B583B617B69032213401A
:100880009B000F229A401300DA433B6913403B61FF
:100890007A689023DB059A4213D07B68444A9342DE
:1008A0000DD07B68434A934207D07B68424A93420B
:1008B00001D1032306E0052304E0022302E0012323
:1008C00000E000237A6903210A40920093403A69CC
:1008D00013433B6135497B699B0802339B003A69AE
:1008E0005A50364B1B683B61FB68DA433B69134047
:1008F0003B613B685A6880235B02134003D03A692E
:10090000FB6813433B612D4B3A691A602B4B5B68C4
:100910003B61FB68DA433B6913403B613B685A68C3
:1009200080239B02134003D03A69FB6813433B6169
:10093000224B3A695A60214B9B683B61FB68DA4362
:100940003B6913403B613B685A6880235B0313405B
:1009500003D03A69FB6813433B61184B3A699A60CC
:10096000164BDB683B61FB68DA433B6913403B6134
:100970003B685A6880239B03134003D03A69FB68A5
:1009800013433B610D4B3A69DA607B6901337B614C
:100990003B681A687B69DA40131E00D0A8E6C0469F
:1009A000BD4606B080BDC0460010024000000140B8
:1009B0000004004800080048000C00480004014002
:1009C00080B582B000AF786008001100BB1C021C2B
:1009D0001A807B1C0A1C1A707B1C1B78002B04D00D
:1009E000BB1C1A887B689A6103E0BB1C1A887B6871
:1009F0009A62C046BD4602B080BD000080B582B09C
:100A000000AF0200BB1D1A80094B5B69BA1D12883A
:100A1000134008D0064BBA1D12885A61BB1D1B88B3
:100A2000180009F07BFAC046BD4602B080BDC04642
:100A30000004014080B588B000AF78607B68002B6F
:100A400001D1012303E37B681B680122134000D11D
:100A50008DE0C44B5B680C221340042B0ED0C14BBD
:100A60005B680C221340082B16D1BE4B5A688023BA
:100A70005B021A4080235B029A420DD1B94B1A687F
:100A800080239B02134000D170E07B685B68002BE1
:100A900000D06BE00123DAE27B685B68012B07D1B1
:100AA000B04B1A68AF4B802149020A431A602FE00D
:100AB0007B685B68002B0CD1AA4B1A68A94BAA492A
:100AC0000A401A60A74B1A68A64BA8490A401A6048
:100AD0001EE07B685B68052B0ED1A24B1A68A14B08
:100AE0008021C9020A431A609E4B1A689D4B8021DF
:100AF00049020A431A600BE09A4B1A68994B9A49CB
:100B00000A401A60974B1A68964B98490A401A6037
:100B10007B685B68002B14D0FFF7D8FC0300BB6137
:100B200008E0FFF7D3FC0200BB69D31A642B01D99C
:100B300003238CE28B4B1A6880239B021340F0D076
:100B400015E0FFF7C3FC0300BB6108E0FFF7BEFC44
:100B50000200BB69D31A642B01D9032377E2814BCE
:100B60001A6880239B021340F0D100E0C0467B68E6
:100B70001B680222134000D169E07A4B5B680C22AB
:100B800013400BD0774B5B680C221340082B1CD111
:100B9000744B5A6880235B02134016D1714B1B685B
:100BA0000222134005D07B68DB68012B01D00123B2
:100BB0004DE26C4B1B68F822934319007B681B695C
:100BC000DA00684B0A431A6041E07B68DB68002B5F
:100BD00024D0644B1A68634B01210A431A60FFF763
:100BE00075FC0300BB6108E0FFF770FC0200BB6905
:100BF000D31A022B01D9032329E25A4B1B68022284
:100C00001340F1D0574B1B68F822934319007B68BF
:100C10001B69DA00534B0A431A6018E0514B1A68FB
:100C2000504B01218A431A60FFF750FC0300BB615F
:100C300008E0FFF74BFC0200BB69D31A022B01D975
:100C4000032304E2474B1B6802221340F1D17B6867
:100C50001B680822134036D07B68DB69002B19D053
:100C6000404B5A6A3F4B01210A435A62FFF72EFC60
:100C70000300BB6108E0FFF729FC0200BB69D31A3F
:100C8000022B01D90323E2E1364B5B6A02221340B7
:100C9000F1D018E0334B5A6A324B01218A435A6231
:100CA000FFF714FC0300BB6108E0FFF70FFC020034
:100CB000BB69D31A022B01D90323C8E1294B5B6A14
:100CC00002221340F1D17B681B680422134000D13B
:100CD000B6E01F23FB1800221A70224BDA6980232A
:100CE0005B05134011D11F4BDA691E4B802149056A
:100CF0000A43DA611B4BDA6980235B051340FB6012
:100D0000FB681F23FB1801221A70194B1A688023F5
:100D10005B0013401AD1164B1A68154B802149000D
:100D20000A431A60FFF7D2FB0300BB6108E0FFF73C
:100D3000CDFB0200BB69D31A642B01D9032386E1E2
:100D40000B4B1A6880235B001340F0D07B689B68D4
:100D5000012B0FD1034B1A6A024B01210A431A627D
:100D600036E0C04600100240FFFFFEFFFFFFFBFF22
:100D7000007000407B689B68002B0CD1B64B1A6A50
:100D8000B54B01218A431A62B34B1A6AB24B042154
:100D90008A431A621CE07B689B68052B0CD1AE4B22
:100DA0001A6AAD4B04210A431A62AB4B1A6AAA4B6A
:100DB00001210A431A620BE0A74B1A6AA64B0121D4
:100DC0008A431A62A44B1A6AA34B04218A431A620B
:100DD0007B689B68002B14D0FFF778FB0300BB6196
:100DE00009E0FFF773FB0200BB69D31A9B4A9342E9
:100DF00001D903232BE1984B1B6A02221340F0D048
:100E000013E0FFF763FB0300BB6109E0FFF75EFB44
:100E10000200BB69D31A914A934201D9032316E118
:100E20008D4B1B6A02221340F0D11F23FB181B7845
:100E3000012B05D1884BDA69874B89490A40DA6171
:100E40007B681B681022134063D07B685B69012BB1
:100E50002AD1814B5A6B804B04210A435A637E4B43
:100E60005A6B7D4B01210A435A63FFF72FFB0300A6
:100E7000BB6108E0FFF72AFB0200BB69D31A022B13
:100E800001D90323E3E0744B5B6B02221340F1D0E2
:100E9000714B5B6BF822934319007B689B69DA0006
:100EA0006D4B0A435A6334E07B685B69053311D1AB
:100EB000694B5A6B684B04218A435A63664B5B6BE0
:100EC000F822934319007B689B69DA00624B0A435E
:100ED0005A631EE0604B5A6B5F4B04210A435A630E
:100EE0005D4B5A6B5C4B01218A435A63FFF7EEFA64
:100EF0000300BB6108E0FFF7E9FA0200BB69D31AFF
:100F0000022B01D90323A2E0534B5B6B0222134057
:100F1000F1D17B681B6A002B00D197E04E4B5B68D8
:100F20000C221340082B00D16BE07B681B6A022B5C
:100F30004CD1494B1A68484B4A490A401A60FFF79E
:100F4000C5FA0300BB6108E0FFF7C0FA0200BB6905
:100F5000D31A022B01D9032379E03F4B1A6880236F
:100F60009B041340F0D13C4BDB6A0F2293431900E2
:100F70007B68DA6A384B0A43DA62374B5B683A4A75
:100F8000134019007B689A6A7B685B6A1A43324B8C
:100F90000A435A60304B1A682F4B802149040A4398
:100FA0001A60FFF793FA0300BB6108E0FFF78EFABF
:100FB0000200BB69D31A022B01D9032347E0264B59
:100FC0001A6880239B041340F0D03FE0224B1A683C
:100FD000214B24490A401A60FFF778FA0300BB61ED
:100FE00008E0FFF773FA0200BB69D31A022B01D99C
:100FF00003232CE0184B1A6880239B041340F0D184
:1010000024E07B681B6A012B01D101231FE0124BF6
:101010005B687B61104BDB6A3B617A6980235B0212
:101020001A407B685B6A9A420ED13B690F221A40D4
:101030007B68DB6A9A4207D17A69F0239B031A40E6
:101040007B689B6A9A4201D0012300E000231800CC
:10105000BD4608B080BDC0460010024088130000A5
:10106000FFFFFFEFFFFFFFFEFFFFC2FF80B584B071
:1010700000AF786039607B68002B01D10123B3E0B9
:101080005B4B1B68012213403A689A4211D9584BB6
:101090001B68012293431900554B3A680A431A60B2
:1010A000534B1B68012213403A689A4201D0012336
:1010B0009AE07B681B680222134015D07B681B688E
:1010C0000422134006D04B4B5A684A4BE021C9001A
:1010D0000A435A60474B5B68F022934319007B68D0
:1010E0009A68444B0A435A607B681B68012213408C
:1010F00040D07B685B68012B07D13E4B1A68802388
:101100009B02134014D101236EE07B685B68022BC5
:1011100007D1384B1A6880239B04134008D1012360
:1011200062E0344B1B680222134001D101235BE0D3
:10113000304B5B680322934319007B685A682D4B40
:101140000A435A60FFF7C2F90300FB6009E0FFF7AA
:10115000BDF90200FB68D31A274A934201D9032341
:1011600042E0244B5B680C221A407B685B689B0062
:101170009A42ECD11E4B1B68012213403A689A42F6
:1011800011D21B4B1B68012293431900184B3A687C
:101190000A431A60164B1B68012213403A689A42B0
:1011A00001D0012320E07B681B680422134009D092
:1011B000104B5B68114A134019007B68DA680D4BCD
:1011C0000A435A6000F020F801000A4B5B681B09D3
:1011D0000F2213400A4AD35C0A00DA40094B1A6016
:1011E0000020FFF72DF900231800BD4604B080BD94
:1011F000002002400010024088130000FFF8FFFFAB
:101200001CAF00086000002090B58FB000AF142321
:10121000FB182B4A13CA13C312681A603B1D294AD4
:1012200013CA13C312681A600023FB620023BB6257
:1012300000237B6300237B6200233B63224B5B68BC
:10124000FB62FB6A0C221340042B02D0082B03D054
:101250002DE01E4B3B632DE0FB6A9B0C0F221340DD
:101260001422BA18D35C7B62174BDB6A0F2213403F
:101270003A1DD35CBB62FA6A80235B02134009D03B
:10128000B96A1248FEF752FF03001A007B6A534303
:101290007B6309E0796A0A005201521A93019B1A92
:1012A000DB005B181B027B637B6B3B6302E0084B3C
:1012B0003B63C0463B6B1800BD460FB090BDC046B7
:1012C000ECAA0008FCAA0008001002400024F40068
:1012D00000127A0080B584B000AF78607B68002B84
:1012E00001D10123A8E07B685B6A002B09D17B68F0
:1012F0005A6882235B009A4209D07B680022DA6137
:1013000005E07B6800221A617B6800225A617B68D5
:1013100000229A627B685D229B5CDBB2002B07D1C6
:101320007B685C22002199547B68180008F044FE19
:101330007B685D22022199547B681B681A687B6870
:101340001B6840218A431A607B68DA68E023DB006F
:101350009A4202D90023FB6002E080235B01FB601C
:101360007B68DA68F0231B019A4208D07B68DA6850
:10137000E023DB009A4202D07B6800229A627B68FD
:101380005A6882235B001A407B68996884231B0299
:101390000B401A437B681B6902210B401A437B6890
:1013A0005B6901210B401A437B68996980239B008C
:1013B0000B401A437B68DB6938210B401A437B687A
:1013C0001B6A80210B401A4311007B689A6A8023B4
:1013D0009B011A407B681B680A431A607B689B6903
:1013E0001B0C04221A407B685B6A10210B401A43D5
:1013F0007B685B6B08210B401A437B68D968F0233C
:101400001B010B401A431100FA6880235B011A404C
:101410007B681B680A435A607B681B68DA697B68D3
:101420001B6807490A40DA617B6800221A667B68FC
:101430005D220121995400231800BD4604B080BDEF
:10144000FFF7FFFF80B582B000AF0200FB1D1A70EE
:10145000FB1D1B78044A1900100000F023F9C04658
:10146000BD4602B080BDC0468024100080B582B069
:1014700000AF0200FB1D1A70BB1D0A1C1A70FB1D79
:101480001B781B021AB2BB1D1B781BB213431BB285
:101490009BB2044A1900100000F034F9C046BD4662
:1014A00002B080BD8424100080B582B000AF02007D
:1014B000FB1D1A70FB1D1B7801221340DBB2044A8E
:1014C0001900100000F0EEF8C046BD4602B080BD25
:1014D0008824100080B582B000AF0200FB1D1A7096
:1014E000FB1D1B78044A1900100000F0DBF8C04611
:1014F000BD4602B080BDC0467C24100080B584B0DB
:1015000000AFF860B9601900BB1D1A807B1D0A1C72
:101510001A70FB68154A1900100000F02BF9BB681F
:10152000134A1900100000F025F9BB1D1B88114A51
:101530001900100000F0E6F87B1D1B780322134011
:10154000DBB20D4A1900100000F0ACF81823FB18AC
:101550001B7801221340DBB2084A1900100000F08A
:10156000A1F8C046BD4604B080BDC046A42410000A
:10157000A8241000B0241000B4241000B8241000D7
:1015800080B582B000AF0200FB1D1A70FB1D1B78F6
:1015900001221340DBB2044A1900100000F082F867
:1015A000C046BD4602B080BDBC24100080B582B0EC
:1015B00000AF0200FB1D1A70FB1D1B789AB2084B8E
:1015C0001B88D3189AB2064B1A80054B1B881B0543
:1015D0001B0D9AB2024B1A80C046BD4602B080BDB8
:1015E000FC00002080B582B000AF0200BB1D1A8055
:1015F000034BBA1D12881A80C046BD4602B080BD9A
:10160000FC00002080B500AF024B1B881800BD46CF
:1016100080BDC046FC00002090B585B000AF78606A
:101620000A00FB1C1A700F23FB1800221A70FB1C07
:101630001B78402B02D17B681B047B607B681A0CF3
:101640000F217B181A707B181B785BB23F22134066
:101650005AB2FB1C1B785BB213435AB27B181A7048
:101660000C007B181B78180001F0DEFF7B681A0A5B
:101670003B191A703B191B78180001F0D5FF3B1974
:101680007A681A703B191B78180001F0CDFFFB1C1B
:101690001B78002B02D1002001F0C6FFC046BD46DA
:1016A00005B090BD80B582B000AF78600A00FB1C29
:1016B0001A707A6884235B039A4208D10F4B1B8807
:1016C0001A007B689B187B600120FFF76FFF0C4BB3
:1016D000802252059A617B6880211800FFF79CFFE9
:1016E000FB1C1B78180001F09FFF054B8022520164
:1016F0009A61C046BD4602B080BDC046FC000020D5
:101700000004004880B582B000AF78600A00BB1CBE
:101710001A807A6884235B039A4208D1134B1B8892
:101720001A007B689B187B600220FFF73FFF104B7D
:10173000802252059A617B6880211800FFF76CFFB8
:10174000BB1C1B88DBB2180001F06EFFBB1C1B88A2
:101750001B0A9BB2DBB2180001F066FF044B80222B
:1017600052019A61C046BD4602B080BDFC00002017
:101770000004004880B582B000AF786039607A68B4
:1017800084235B039A4208D1184B1B881A007B689C
:101790009B187B600420FFF709FF154B8022520540
:1017A0009A617B6880211800FFF736FF3B68DBB247
:1017B000180001F039FF3B681B0ADBB2180001F08A
:1017C00033FF3B681B0CDBB2180001F02DFF3B68B8
:1017D0001B0EDBB2180001F027FF054B80225201DF
:1017E0009A61C046BD4602B080BDC046FC000020E4
:1017F00000040048B0B584B000AF78600F257B19B5
:1018000000221A700B4B802252059A617B680021DE
:101810001800FFF701FF7C1901F015FF030023708A
:10182000044B802252019A617B191B781800BD4637
:1018300004B0B0BD00040048B0B584B000AF78601B
:101840000E257B1900221A800C243B1900221A80D5
:10185000184B802252059A617B6800211800FFF71F
:10186000DBFE01F0F0FE03001A007B191A803B1921
:1018700039197A19098812880A431A8001F0E3FE9F
:1018800003001A007B191A807B191B881B021AB2ED
:101890003B1900215B5E13431AB23B191A80054BBA
:1018A000802252019A613B191B881800BD4604B082
:1018B000B0BDC0460004004880B584B000AF786079
:1018C0000023FB600023BB601A4B802252059A6103
:1018D0007B6800211800FFF79FFE01F0B4FE0300B3
:1018E000FB60BA68FB681343BB6001F0ACFE030009
:1018F000FB60FB681B02BA681343BB6001F0A3FEE8
:101900000300FB60FB681B04BA681343BB6001F073
:101910009AFE0300FB60FB681B06BA681343BB60BA
:10192000044B802252019A61BB681800BD4604B086
:1019300080BDC0460004004880B500AF0D4B80223A
:1019400052059A6140214420FFF766FE4021622043
:10195000FFF762FE40216820FFF75EFE4021002075
:10196000FFF75AFE034B802252019A61C046BD46E2
:1019700080BDC0460004004880B500AF89239B00AD
:10198000244A19001000FFF7BDFE234B2B2118003D
:10199000FFF7B8FE214B00211800FFF7B3FE204BE4
:1019A00029211800FFF7AEFE92235B001D4A1900A3
:1019B0001000FFF7A7FE1C4B0C211800FFF7A2FE3A
:1019C0001A4B00211800FFF79DFE194B0A21180041
:1019D000FFF798FE174B00211800FFF763FE164B28
:1019E00001211800FFF75EFEF0235B00134A190087
:1019F0001000FFF787FE88235B00114A19001000D2
:101A0000FFF780FE0F4B05211800FFF74BFEC04685
:101A1000BD4680BD282410002C2410003424100062
:101A2000382410003C2410004024100048241000EA
:101A30004C24100060241000682410003024100092
:101A4000442410006C24100080B500AFE123DB00BB
:101A5000104A19001000FFF755FE0F4B0321180024
:101A6000FFF720FE0D4B01211800FFF71BFE0C4A6B
:101A70000C4B11001800FFF745FE0B4B032118001B
:101A8000FFF710FE094B07211800FFF70BFEC046B9
:101A9000BD4680BD04251000F0241000F424100081
:101AA00070170000F8241000FC241000002510001E
:101AB00080B500AF034B1800FFF79CFEC046BD4643
:101AC00080BDC0469824100080B500AF0A4B0121AC
:101AD0001800FFF7E7FD142008F03DFA074B062138
:101AE0001800FFF7DFFD142008F035FAFFF7E0FFDC
:101AF000C046BD4680BDC0469C241000A0241000F6
:101B000080B500AF064B83211800FFF7CBFD054BD6
:101B100081211800FFF7C6FDC046BD4680BDC04606
:101B20008C2410009024100080B500AF01F040FD1F
:101B300001F044FD01F050FD322008F00CFA1D4B7D
:101B4000802292009A61142008F005FA194B802235
:101B500052059A6100210020FFF75EFD154B80229F
:101B600052019A61FFF7E8FE322008F0F4F9FFF71E
:101B7000C7FFFFF701FFFFF767FFFFF7A5FF802310
:101B80009A0480235B0311001800FFF7F3FD0A4A53
:101B90000A4B11001800FFF7EDFD094B002118005A
:101BA000FFF7E8FD074B02211800FFF7E3FDC046F1
:101BB000BD4680BD00040048070000260400100058
:101BC000080010005024100080B500AF044A8423A0
:101BD0005B0311001800FFF7CDFDC046BD4680BD78
:101BE00000FFFFFF80B500AF84235B0300211800D6
:101BF000FFF7C0FDFF235A4284235B031100180046
:101C0000FFF7B8FDFFF7FEFC03001A00034B1100BD
:101C10001800FFF777FDC046BD4680BDE8241000E0
:101C200080B582B000AF0E4B1800FFF705FE030031
:101C30007B600C4B1800FFF7FFFD03003B607A68E8
:101C40003B689A42EFD1064B1800FFF7F5FD030001
:101C50001800FFF7C7FCC046BD4602B080BDC046B5
:101C6000E8241000E424100080B500AFFFF7CAFCA0
:101C700003001A00034B11001800FFF743FDC04694
:101C8000BD4680BDE824100090B583B000AF0E4B78
:101C90001800FFF7D1FD03001C000C4B1800FFF7E4
:101CA000CBFD0300E31A9BB21B051B0D7B607B6819
:101CB0009AB2BB1C06498A1A1A80BB1C1B881800E2
:101CC000BD4603B090BDC046E8241000E4241000D7
:101CD000FC0F000080B582B000AF78607B681B020B
:101CE0001B0A802292041A4384235B03110018000C
:101CF000FFF740FDC046BD4602B080BD80B582B052
:101D000000AF0200FB1D1A70FB1D1B780722134059
:101D10009822920513431A0084235B0311001800D4
:101D2000FFF728FDC046BD4602B080BD80B582B039
:101D300000AF0200FB1D1A70FB1D1B7880225205AC
:101D400013431A0084235B0311001800FFF712FDF0
:101D5000C046BD4602B080BD80B582B000AF78609D
:101D60007B681B021B0A8022D2041A4384235B0374
:101D700011001800FFF7FEFCC046BD4602B080BD52
:101D800080B582B000AF7860F7235A4284235B03AA
:101D900011001800FFF7EEFC7B681B021A0A84236F
:101DA0005B0311001800FFF7E5FCC046BD4602B01A
:101DB00080BD80B582B000AF7860F6235A4284239C
:101DC0005B0311001800FFF7D5FC7B681B021A0AA1
:101DD00084235B0311001800FFF7CCFCC046BD460E
:101DE00002B080BD80B584B000AF0200BB1D1A8078
:101DF0003B1D0A1C1A808023DB05FB60BB1D1B8872
:101E0000DB031A000B4B1340FA681343FB603B1DC6
:101E10001B885B045B0CFA681343FB60FA6884233D
:101E20005B0311001800FFF7A5FCC046BD4604B0D7
:101E300080BDC0460080FF3FB0B584B000AF050054
:101E40000C0010001900BB1D2A1C1A803B1D221C0F
:101E50001A80FB1C021C1A70BB1C0A1C1A708023FF
:101E60001B06FB60BB1D1B885B051A00144B13404F
:101E7000FA681343FB603B1D1B881B031A00114BC0
:101E80001340FA681343FB60FB1C1B78DB011A004C
:101E9000F8231B011340FA681343FB60BB1C1B783B
:101EA0007F221340FA681343FB60FA6884235B03C4
:101EB00011001800FFF75EFCC046BD4604B0B0BD7F
:101EC0000000E03F00F01F0080B582B000AF0200CC
:101ED000FB1D1A7005E084235B0300211800FFF747
:101EE000E1FBFB1D1B78FA1D591C11701A0003231E
:101EF0001340F0D1C046BD4602B080BD90B585B05C
:101F000000AF78600E243B1900221A807B6818000D
:101F1000FEF704F903009AB23B1901321A800EE071
:101F20007B685A1C7A600D217A181B7813707B1815
:101F30001A7884235B0311001800FFF7B3FB7B685A
:101F40001B78002BECD184235B0300211800FFF7E2
:101F5000A9FB0E23FB181B88DBB21800FFF7B4FFA8
:101F6000C046BD4605B090BD80B582B000AF786078
:101F70003960E4235A4284235B0311001800FFF701
:101F8000F9FB7A6884235B0311001800FFF7F2FB6A
:101F90003A6884235B0311001800FFF7EBFBC0468F
:101FA000BD4602B080BD0000B0B584B000AF0400F3
:101FB0000800BA6019000E257B19221C1A800C2417
:101FC0003B19021C1A80BB1D0A1C1A80BB68180032
:101FD000FFF7C2FEBB1D1B88D022120513431A0057
:101FE00084235B0311001800FFF7C4FB104A84230D
:101FF0005B0311001800FFF7BDFB7B1900229B5EFD
:102000001B011AB23B1900215B5E1B011BB21900B8
:102010001000FFF7E7FE84239A0584235B03110079
:102020001800FFF7A7FBC046BD4604B0B0BDC046D0
:102030000200001FB0B582B000AF05000C00100018
:102040001900BB1D2A1C1A803B1D221C1A80BB1CB8
:10205000021C1A803B000A1C1A80BB691800FFF79B
:102060007BFE1C23FB181B881B051B0DE0221205A1
:1020700013431A0084235B0311001800FFF77AFB57
:10208000174A84235B0311001800FFF773FBBB1D85
:1020900000229B5E1B011AB23B1D00215B5E1B01EF
:1020A0001BB219001000FFF79DFEBB1C00229B5EB7
:1020B0001B011AB23B0000215B5E1B011BB2190021
:1020C0001000FFF78FFE84239A0584235B03110021
:1020D0001800FFF74FFBC046BD4602B0B0BDC0467A
:1020E0000300001FB0B582B000AF05000C00100067
:1020F0001900BB1D2A1C1A803B1D221C1A80BB1C08
:10210000021C1A803B000A1C1A80BB691800FFF7EA
:1021100023FE1C23FB181B881B051B0DE022120548
:1021200013431A0084235B0311001800FFF722FBFE
:10213000174A84235B0311001800FFF71BFBBB1D2C
:1021400000229B5E1B011AB23B1D00215B5E1B013E
:102150001BB219001000FFF745FEBB1C00229B5E5E
:102160001B011AB23B0000215B5E1B011BB2190070
:102170001000FFF737FE84239A0584235B031100C8
:102180001800FFF7F7FAC046BD4602B0B0BDC04622
:102190000900001F90B587B000AFF860B9603B60E0
:1021A000BB1D1A803B681800FFF7D6FD20230822CC
:1021B0009446BC4463441B881B051B0DE02212059A
:1021C00013431A0084235B0311001800FFF7D2FAAF
:1021D0001C4A84235B0311001800FFF7CBFA162377
:1021E000FB1800221A801AE016243B191B885B009A
:1021F000FA68D31800229B5E1B0118B23B191B889A
:102200005B00BA68D31800229B5E1B011BB2190049
:10221000FFF7E8FD3B191A883B1901321A80162393
:10222000FA18BB1D12881B889A42DDD384239A05B5
:1022300084235B0311001800FFF79CFAC046BD46DB
:1022400007B090BD0400001F90B587B000AFF860E4
:10225000B9601900BB1D1A807B1D0A1C1A7000236F
:102260007B617B1D1B78422B10D002DC412B0AD0F6
:102270000FE04C2B04D0522B0BD105237B6108E0DF
:1022800006237B6105E007237B6102E008237B6175
:10229000C046BB6A1800FFF75FFD7B69F822520554
:1022A0001A4384235B0311001800FFF763FA12231B
:1022B000FB1800221A801AE012243B191B885B00CD
:1022C000FA68D31800229B5E1B0118B23B191B88C9
:1022D0005B00BA68D31800229B5E1B011BB2190079
:1022E000FFF780FD3B191A883B1901321A8012232F
:1022F000FA18BB1D12881B889A42DDD384239A05E5
:1023000084235B0311001800FFF734FAC046BD4672
:1023100007B090BD90B585B000AF04000800110073
:102320007B600E23FB18221C1A800C23FB18021C56
:102330001A800B243B190A1C1A707B681800FFF7DF
:102340000BFD194A84235B0311001800FFF712FAF2
:102350003B191B781F2B03D90B23FB181F221A7064
:102360000B23FB181B780F2B03D80B23FB18102211
:102370001A702023FB181C780B23FB181A780C23E7
:10238000FB1819880E23FB1818882300FFF754FD4B
:1023900084239A0584235B0311001800FFF7EAF9F0
:1023A000C046BD4605B090BD0100001FF0B585B028
:1023B00000AF0400080011007B600E257B19221C71
:1023C0001A800C243B19021C1A800B26BB190A1C0C
:1023D0001A707B681800FFF7BFFCF4235A4284236D
:1023E0005B0311001800FFF7C5F97B191A888423D5
:1023F0005B0311001800FFF785F93B191A88842345
:102400005B0311001800FFF77DF9BB191B781F2B28
:1024100003D90B23FB181F221A700B23FB181B7800
:102420000F2B03D80B23FB1810221A700B23FB1859
:102430001B789AB284235B0311001800FFF762F93E
:10244000202308229446BC4463441A8884235B03F7
:1024500011001800FFF756F9FB6A1800FFF74EFD50
:10246000C046BD4605B0F0BDB0B582B000AF0500B6
:102470000C0010001900BB1D2A1C1A803B1D221CD9
:102480001A80FB1C021C1A703B000A1C1A80FB6994
:102490001800FFF761FCD2235A4284235B0311002A
:1024A0001800FFF767F9BB1D1A8884235B0311002E
:1024B0001800FFF727F93B1D1A8884235B031100DE
:1024C0001800FFF71FF9FB1C1B781F2B02D9FB1C00
:1024D0001F221A70FB1C1B780F2B02D8FB1C10222A
:1024E0001A70FB1C1B789AB284235B03110018003E
:1024F000FFF708F93B001A8884235B0311001800DA
:10250000FFF700F9BA6984235B0311001800FFF795
:1025100031F9C046BD4602B0B0BDB0B584B002AF1F
:1025200005000C0010001900BB1D2A1C1A803B1D61
:10253000221C1A80BB1C021C1A803B000A1C1A8039
:102540002C23FB181B78002B13D0012000F08BFDEF
:102550003B001C88BB1C1A883B1D0021595EBB1D1B
:102560000020185E2C23FB181B780093230000F03A
:1025700026FDBB691800FFF71CFCBB6A1800FFF7BB
:10258000EBFBF3235A4284235B0311001800FFF78F
:10259000F1F8BB1D1A8884235B0311001800FFF7B4
:1025A000B1F83B1D1A8884235B0311001800FFF764
:1025B000A9F8BB1C1A8884235B0311001800FFF7DD
:1025C000A1F83B001A8884235B0311001800FFF771
:1025D00099F81C23FB181B781F2B03D91C23FB180D
:1025E0001F221A701C23FB181B780F2B03D81C23E7
:1025F000FB1810221A701C23FB181B789AB2842334
:102600005B0311001800FFF77DF82023FB181A88E0
:1026100084235B0311001800FFF774F87B6A18002D
:10262000FFF76CFC002000F01EFDC046BD4602B066
:10263000B0BD90B587B002AF0400080011007B6008
:102640000E23FB18221C1A800C23FB18021C1A8074
:102650000A23FB180A1C1A803823FB181B78002B4E
:1026600012D0012000F0FFFC0C23FB180021595E62
:102670000E23FB180020185E3823FB181B780093EC
:102680000123012200F09BFC7B681800FFF778FB18
:102690007B6B1800FFF760FBEC235A4284235B033B
:1026A00011001800FFF766F80E23FB181A88842320
:1026B0005B0311001800FFF725F80C23FB181A889C
:1026C00084235B0311001800FFF71CF80A23FB1892
:1026D0001A8884235B0311001800FFF713F82023E6
:1026E000FB181A8884235B0311001800FFF70AF80F
:1026F0002423FB181A8884235B0311001800FFF7BA
:1027000001F82823FB181A8884235B0311001800A2
:10271000FEF7F8FF2C23FB181A8884235B031100B3
:102720001800FEF7EFFF3023FB181A8884235B03A1
:1027300011001800FEF7E6FF002000F094FCC046F0
:10274000BD4605B090BDB0B584B000AF0400080030
:10275000BA6019000E257B19221C1A800C243B1923
:10276000021C1A80BB1D0A1C1A80F5235A428423BE
:102770005B0311001800FEF7FDFF7B191A88842304
:102780005B0311001800FEF7BDFF3B191A88842374
:102790005B0311001800FEF7B5FFBB681800FFF7D8
:1027A000DBFABB1D1A8884235B0311001800FEF7B7
:1027B000A9FF2023FB181A8884235B03110018004B
:1027C000FEF7A0FF7B6A1800FFF7C6FAC046BD46B9
:1027D00004B0B0BD80B584B000AF0200BB1D1A804C
:1027E0003B1D0A1C1A80D8235B05FB60BB1D1B88A0
:1027F0005B021A000B4B1340FA681343FB603B1D4E
:102800001B88DB05DB0DFA681343FB60FA68842341
:102810005B0311001800FEF7ADFFC046BD4604B0D3
:1028200080BDC04600FE030080B584B000AF02004A
:10283000BB1D1A803B1D0A1C1A80E0235B05FB6050
:10284000BB1D1B889B021A000B4B1340FA681343F5
:10285000FB603B1D1B889B059B0DFA681343FB60C7
:10286000FA6884235B0311001800FEF783FFC0465B
:10287000BD4604B080BDC04600FC0F00B0B584B0BA
:1028800002AF05000C0010001900BB1D2A1C1A80A5
:102890003B1D221C1A80BB1C021C1A803B000A1C18
:1028A0001A802C23FB181B78002B13D0012000F07A
:1028B000DAFB3B001C88BB1C1A883B1D0021595EBB
:1028C000BB1D0020185E2C23FB181B7800932300EF
:1028D00000F075FBBB691800FFF76BFABB6A1800C4
:1028E000FFF73AFAF2235A4284235B0311001800DF
:1028F000FEF740FFBB1D1A8884235B0311001800FC
:10290000FEF700FF3B1D1A8884235B0311001800AB
:10291000FEF7F8FEBB1C1A8884235B031100180025
:10292000FEF7F0FE3B001A8884235B0311001800B9
:10293000FEF7E8FE1C23FB181B781F2B03D91C2372
:10294000FB181F221A701C23FB181B780F2B03D8AF
:102950001C23FB1810221A701C23FB181B789AB238
:1029600084235B0311001800FEF7CCFE2023FB1824
:102970001A8884235B0311001800FEF7C3FE7B6AEC
:102980001800FFF7BBFA002000F06DFBC046BD4603
:1029900002B0B0BDB0B584B002AF05000C001000AD
:1029A0001900BB1D2A1C1A803B1D221C1A80BB1C4F
:1029B000021C1A803B000A1C1A803023FB181B786B
:1029C000002B13D0012000F04EFB3B001C88BB1CE9
:1029D0001A883B1D0021595EBB1D0020185E302364
:1029E000FB181B780093230000F0E9FABB6918007C
:1029F000FFF7DFF9FB691800FFF7C2F9EF235A422E
:102A000084235B0311001800FEF7B4FEBB1D1A8877
:102A100084235B0311001800FEF774FE3B1D1A8827
:102A200084235B0311001800FEF76CFEBB1C1A88A0
:102A300084235B0311001800FEF764FE3B001A8834
:102A400084235B0311001800FEF75CFE2023FB18B3
:102A50001A8884235B0311001800FEF753FE242319
:102A6000FB181A8884235B0311001800FEF74AFE46
:102A70002823FB181A8884235B0311001800FEF733
:102A800041FE2C23FB181A8884235B0311001800D5
:102A9000FEF738FE002000F0E6FAC046BD4602B060
:102AA000B0BDB0B584B002AF05000C001000190035
:102AB000BB1D2A1C1A803B1D221C1A80BB1C021C39
:102AC0001A807B1C0A1C1A703023FB181B78002B01
:102AD00014D0012000F0C7FA7B1C1B789CB2BB1CF1
:102AE0001A883B1D0021595EBB1D0020185E302353
:102AF000FB181B780093230000F061FA7B6A180032
:102B0000FFF757F9BB6A1800FFF73AF9FB6A18009C
:102B1000FFF722F9EE235A4284235B0311001800C9
:102B2000FEF728FEBB1D1A8884235B0311001800E2
:102B3000FEF7E8FD3B1D1A8884235B031100180093
:102B4000FEF7E0FDBB1C1A8884235B03110018000C
:102B5000FEF7D8FD7B1C1B781F2B02D97B1C1F2284
:102B60001A707B1C1B780F2B02D87B1C10221A704A
:102B70007B1C1B789AB284235B0311001800FEF7BC
:102B8000C1FD1823FB181A8884235B031100180069
:102B9000FEF7B8FD1C23FB181A8884235B03110081
:102BA0001800FEF7AFFD3B6A1800FFF7A7F90020F9
:102BB00000F059FAC046BD4602B0B0BDB0B584B011
:102BC00002AF05000C0010001900BB1D2A1C1A8062
:102BD0003B1D221C1A80BB1C021C1A803B000A1CD5
:102BE0001A803023FB181B78002B13D0012000F033
:102BF0003AFA3B001C88BB1C1A883B1D0021595E19
:102C0000BB1D0020185E3023FB181B7800932300A7
:102C100000F0D5F9BB6A1800FFF7CBF87B6A180003
:102C2000FFF79AF8FB6A1800FFF7AAF8F0235A4258
:102C300084235B0311001800FEF79CFDBB1D1A885E
:102C400084235B0311001800FEF75CFD3B1D1A880E
:102C500084235B0311001800FEF754FDBB1C1A8887
:102C600084235B0311001800FEF74CFD3B001A881B
:102C700084235B0311001800FEF744FD1823FB18A2
:102C80001A8884235B0311001800FEF73BFD1C2308
:102C9000FB181A8884235B0311001800FEF732FD2D
:102CA0002023FB181A8884235B0311001800FEF709
:102CB00029FD84235B0300211800FEF723FD00207B
:102CC00000F0D1F9C046BD4602B0B0BDB0B584B089
:102CD00002AF05000C0010001900BB1D2A1C1A8051
:102CE0003B1D221C1A80BB1C021C1A803B000A1CC4
:102CF0001A802C23FB181B78002B13D0012000F026
:102D0000B2F93B001C88BB1C1A883B1D0021595E90
:102D1000BB1D0020185E2C23FB181B78009323009A
:102D200000F04DF97B6A1800FFF716F8BB6A18002F
:102D3000FFF726F8F1235A4284235B0311001800A1
:102D4000FEF718FDBB1D1A8884235B0311001800D1
:102D5000FEF7D8FC3B1D1A8884235B031100180082
:102D6000FEF7D0FCBB1C1A8884235B0311001800FB
:102D7000FEF7C8FC3B001A8884235B03110018008F
:102D8000FEF7C0FC1823FB181A8884235B0311008C
:102D90001800FEF7B7FC1C23FB181A8884235B037A
:102DA00011001800FEF7AEFC2023FB181A888423BC
:102DB0005B0311001800FEF7A5FC84235B030021D0
:102DC0001800FEF79FFC002000F04DF9C046BD46FC
:102DD00002B0B0BDB0B584B002AF05000C00100069
:102DE0001900BB1D2A1C1A803B1D221C1A80BB1C0B
:102DF000021C1A803B000A1C1A802423FB181B7833
:102E0000002B10D0012000F02EF93B1D0021595E4F
:102E1000BB1D0020185E2423FB181B7800930123A0
:102E2000012200F0CCF83B6A1800FEF795FFFB6921
:102E30001800FEF7BEFFD3235A4284235B03110020
:102E40001800FEF797FCBB1D1A8884235B03110052
:102E50001800FEF757FC3B1D1A8884235B03110002
:102E60001800FEF74FFCBB1C1A8884235B0311007B
:102E70001800FEF747FC3B001A8884235B0311000F
:102E80001800FEF73FFC1823FB181A8884235B0305
:102E900011001800FEF736FC84235B0300211800A4
:102EA000FEF730FC002000F0DEF8C046BD4602B060
:102EB000B0BDB0B584B002AF05000C001000190021
:102EC000BB1D2A1C1A803B1D221C1A80BB1C021C25
:102ED0001A803B000A1C1A803023FB181B78002B39
:102EE00010D0012000F0BFF83B1D0021595EBB1D32
:102EF0000020185E3023FB181B7800930123012269
:102F000000F05DF8FB6A1800FEF726FFBB6A1800A8
:102F1000FEF736FFED235A4284235B0311001800AD
:102F2000FEF728FCBB1D1A8884235B0311001800E0
:102F3000FEF7E8FB3B1D1A8884235B031100180091
:102F4000FEF7E0FBBB1C1A8884235B03110018000A
:102F5000FEF7D8FB3B001A8884235B03110018009E
:102F6000FEF7D0FB1823FB181B789AB284235B036F
:102F700011001800FEF7C6FB1C23FB181B789AB241
:102F800084235B0311001800FEF7BCFB2023FB1811
:102F90001A8884235B0311001800FEF7B3FB242377
:102FA000FB181A8884235B0311001800FEF7AAFBA4
:102FB000002000F058F8C046BD4602B0B0BDB0B524
:102FC00082B000AF05000C0010001900BB1D2A1CC8
:102FD0001A803B1D221C1A80BB1C021C1A803B005D
:102FE0000A1C1A80D4235A4284235B031100180060
:102FF000FEF7C0FBBB1D1A8884235B031100180079
:10300000FEF780FB3B1D1A8884235B031100180028
:10301000FEF778FBBB1C1A8884235B0311001800A1
:10302000FEF770FB3B001A8884235B031100180035
:10303000FEF768FB18243B191A7884235B03110000
:103040001800FEF797FB3B191B78C022920413432C
:103050001A0084235B0311001800FEF78BFBC046A7
:10306000BD4602B0B0BD80B582B000AF0200FB1D0E
:103070001A70FB1D1B7801221340A0225205134336
:103080001A0084235B0311001800FEF773FBC0468F
:10309000BD4602B080BD000080B582B000AF074BD6
:1030A0001800FEF709FC0200FF2313407B607B68D9
:1030B000DBB21800BD4602B080BDC04600901000D3
:1030C00080B582B000AF074B1800FEF7F5FB030098
:1030D0001B0C1B047B607B681B0C9BB21800BD465D
:1030E00002B080BD0090100080B500AFEB235A42C3
:1030F00084235B0311001800FEF73CFBC046BD466D
:1031000080BDB0B582B000AF05000C001000190002
:10311000BB1D2A1C1A803B1D221C1A80FB1C021C92
:103120001A70BB1C0A1C1A70EA235A4284235B03E0
:1031300011001800FEF71EFBBB1D1A8884235B03D9
:1031400011001800FEF7DEFA3B1D1A8884235B038A
:1031500011001800FEF7D6FAFB1C1B78032B02D9CE
:10316000FB1C00221A70FB1C1B789AB284235B03A1
:1031700011001800FEF7C6FABB1C1B789AB2842314
:103180005B0311001800FEF7BDFAC046BD4602B051
:10319000B0BD80B500AFCF235A4284235B0311003A
:1031A0001800FEF7E7FAC046BD4680BD80B500AF07
:1031B000FEF75AFD012006F0CEFEC046064B180071
:1031C000FEF73AFB031EF9D1012006F0C4FEFEF71C
:1031D00027FDC046BD4680BDE824100080B500AF85
:1031E000D1235A4284235B0311001800FEF7C2FA70
:1031F000C046BD4680BDB0B582B000AF05000C0032
:1032000010001900BB1D2A1C1A803B1D221C1A80AD
:10321000BB1C021C1A803B000A1C1A80D0235A4295
:1032200084235B0311001800FEF7A4FABB1D1A8863
:1032300084235B0311001800FEF764FA3B1D1A8813
:1032400084235B0311001800FEF75CFABB1C1A888C
:1032500084235B0311001800FEF754FA3B001A8820
:1032600084235B0311001800FEF74CFABA6984232B
:103270005B0311001800FEF77DFA1C23FB181A8867
:1032800084235B0311001800FEF73CFA84235B03E0
:1032900000211800FEF736FAC046BD4602B0B0BDA8
:1032A00080B500AFE9235A4284235B031100180064
:1032B000FEF760FAC046BD4680BD80B584B000AF61
:1032C0000200FB1D1A7094239B05FB60FB1D1B78FD
:1032D00001221340FA681343FB60FA6884235B03FE
:1032E00011001800FEF746FAC046BD4604B080BD86
:1032F00080B500AF044A84235B0311001800FEF779
:1033000039FAC046BD4680BD0100001F90B585B0AA
:1033100000AF040008001100FB1D221C1A703B1DA9
:10332000021C1A80BB1C0A1C1A80E023DB04FB6011
:10333000FB1D1B780B2B02D9FB1D0B221A70FB1DEA
:103340001B78DA04F8231B041340FA681343FB606C
:103350003B1D1B885B020B4A1340FA681343FB605A
:10336000BB1C1B88DB05DB0DFA681343FB60FA68A6
:1033700084235B0311001800FEF7FCF9C046BD462C
:1033800005B090BD00FE0700B0B584B000AF0500E9
:103390000C0010001900FB1D2A1C1A70BB1D221CFA
:1033A0001A707B1D021C1A70BB1C0A1C1A80802319
:1033B0001B05FB60FB1D1B781A0580235B03134074
:1033C000FA681343FB60BB1D1B78DA0480231B03E0
:1033D0001340FA681343FB607B1D1B789A0480231B
:1033E000DB021340FA681343FB60BB1C1B885B02C3
:1033F0000B4A1340FA681343FB602023FB181B8819
:10340000DB05DB0DFA681343FB60FA6884235B037A
:1034100011001800FEF7AEF9C046BD4604B0B0BDBD
:1034200000FE030080B582B000AF78607B681B03AC
:103430001B0B802252041A4384235B0311001800E3
:10344000FEF798F9C046BD4602B080BD80B500AF1A
:10345000DA235A4284235B0311001800FEF78AF92D
:10346000C046BD4680BD80B500AFD6235A428423F6
:103470005B0311001800FEF77DF9C046BD4680BD14
:1034800080B582B000AF0200BB1D1A803B1D0A1C34
:103490001A80D8235A4284235B0311001800FEF7D8
:1034A00069F9BB1D00229B5E1B041A0084235B0389
:1034B00011001800FEF75EF93B1D00229B5E1B0405
:1034C0001A0084235B0311001800FEF753F9C0466D
:1034D000BD4602B080BD80B582B000AF0200BB1D0A
:1034E0001A803B1D0A1C1A80D9235A4284235B038D
:1034F00011001800FEF73EF9BB1D00229B5E1B0465
:103500001A0084235B0311001800FEF733F93B1DFA
:1035100000229B5E1B041A0084235B031100180029
:10352000FEF728F9C046BD4602B080BD80B582B026
:1035300000AF0200BB1D1A80D7235A4284235B03CD
:1035400011001800FEF716F9BB1D00229B5E1A043D
:10355000B42359001000FCF773FE03001A00842303
:103560005B0311001800FEF705F9C046BD4602B026
:1035700080BD80B582B000AF78603960DC235A42EC
:1035800084235B0311001800FEF7F4F87A688423A3
:103590005B0311001800FEF7EDF83A6884235B0323
:1035A00011001800FEF7E6F8C046BD4602B080BD27
:1035B00080B500AFC046C046BD4680BD80B500AFF7
:1035C000C046044B1A68034B40210A431A60C046A8
:1035D000BD4680BD0038004080B500AFC046C04643
:1035E000BD4680BD80B582B000AF0200FB1D1A70E1
:1035F000C0460B4B9B6802221340FAD0094AFB1DC0
:103600001B781370C046064B9B6801221340FAD00A
:10361000044B1B78DBB21800BD4602B080BDC0462B
:10362000003800400C38004080B582B000AF020086
:10363000FB1D1A70FB1D1B781800FFF7D3FFC04657
:10364000BD4602B080BD80B500AF0020FFF7CAFFC5
:1036500003001800BD4680BDF0B5D34CA54400AFB3
:10366000F860B9607A603B60D04BFB1800221A808A
:10367000CF4ABB1800221A80932080003B180022FA
:103680001A8000239224A4003D192B6000239A2560
:10369000AD007D192B6000239925AD007D192B60AD
:1036A000002300249425AD007E1933607460B9684E
:1036B0001C243B190122180002F02AFE3B19142198
:1036C000180003F087FB18257B191426B91938193F
:1036D000022203F0D5F8B74B9C2189008C46BC44EC
:1036E00063445B781B021AB2B24B9C2189008C4662
:1036F000BC4463441B781BB213431AB2AB4BFB1898
:103700001A803B191621180003F064FB7B19B919C4
:103710003819022203F0B4F8A64B9C2189008C468C
:10372000BC4463445B781B021AB2A24B9C21890003
:103730008C46BC4463441B781BB213431AB29C49A9
:103740007B181A803B191821180003F043FB7B19E2
:10375000B9193819042203F093F8964B9C2189007B
:103760008C46BC446344DB781A06924B9C2189004A
:103770008C46BC4463449B781B041A438D4B9C21AC
:1037800089008C46BC4463445B781B021343894A1E
:103790009C2189008C46BC446244127813439222D7
:1037A0009200BA1813603B192221180003F012FB93
:1037B0007B19B9193819042203F062F87D4B9C2259
:1037C00092009446BC4463445B781B021AB2794B66
:1037D0009C2189008C46BC4463441B781BB2134374
:1037E0001AB2932080003B181A803B192821180038
:1037F00003F0F0FA7B19B9193819042203F040F8E4
:103800006C4B9C2292009446BC446344DB781A06BD
:10381000684B9C2189008C46BC4463449B781B0404
:103820001A43644B9C2189008C46BC4463445B78FA
:103830001B0213435F4A9C2189008C46BC446244AE
:10384000127813439425AD007A191360DB17952283
:103850009200BA181360554BFB181B88012B0FD12F
:1038600093239B00FB181B88082B04D14F4BFB189C
:1038700000221A801CE04D4BFB1803221A8017E02F
:103880004A4BFB181B88072B04D1484BFB1801221D
:103890001A800DE0454BFB181B88112B04D1434BBC
:1038A000FB1802221A8003E0404BFB1803221A8007
:1038B0003E4BFB181B88032B00D9EAE095239B00A5
:1038C000FB181B68002B0DD195239B00FB181B6870
:1038D000002B0FD194239B00FB181A688023DB0276
:1038E0009A4207D98023DB02002494229200BA185E
:1038F0001360546094239B00FB181B68972292006E
:10390000BA181360FB6899229200BA1813601C233E
:10391000FB182C21180003F05DFA84E097239B002C
:10392000FB181A6880231B019A4206D980231B01C9
:103930009A229200BA18136007E097239B00FB18A5
:103940001B689A229200BA1813601823FB189A2257
:103950009200BA18126818491C20381802F090FF1B
:10396000164B802252059A6199239B00FB181B6815
:1039700080211800FDF750FE002398229200BA180B
:1039800013602EE0094BFB181B88002B18D10A4A44
:1039900098239B00FB181B68D3181B78803BDBB275
:1039A0001800FFF741FE15E08CFDFFFF6E020000DE
:1039B0004E020000A4FDFFFF980300200004004811
:1039C0004E4A98239B00FB181B68D3181B781800DD
:1039D000FFF72AFE98229200BB181B680133BA1821
:1039E000136098239B00FB181A689A239B00FB180E
:1039F0001B689A42C6D3424B802252019A61992198
:103A000089007B181A689A2080003B181B68D3181D
:103A10007A181360972189007B181A683B181B6875
:103A2000D31A7A18136097239B00FB181B68002B8E
:103A300000D073E77B68334ABA1812881A803B6853
:103A4000314ABA1812881A80A0239B000822944693
:103A5000BC4463441B6892229200BA1812681A6030
:103A6000A1239B0008229446BC4463441B68932214
:103A70009200BA1812881A8094239B00FB181A68C7
:103A8000A2239B0008218C46BC4463441B681A6037
:103A900020E07B6800221A803B6800221A80A02365
:103AA0009B0008229446BC4463441B6800221A60B1
:103AB000A1239B0008229446BC4463441B68002257
:103AC0001A80A2239B0008229446BC4463441B68CE
:103AD00000221A601C23FB18180003F043F9094B5D
:103AE000FB181B88032B01D8012300E000231800DA
:103AF000BD469D239B009D44F0BDC0469803002019
:103B0000000400486E0200004E020000F0B5CC4CEC
:103B1000A54400AFF860B9607A603B60002396224C
:103B20009200B9180B6000239721890079180B6067
:103B3000B9681C243B190122180002F0E9FB3B196B
:103B40000E21180003F046F918257B191426B9191F
:103B50003819042202F094FEBA4B9A2189008C464F
:103B6000BC446344DB781A06B64B9A2189008C4624
:103B7000BC4463449B781B041A43B24B9A218900CE
:103B80008C46BC4463445B781B021343AD4A9A21C4
:103B900089008C46BC446244127813430E3396224B
:103BA0009200B9180B603B191221180003F012F9AA
:103BB0007B19B9193819042202F062FEA14B9A212F
:103BC00089008C46BC446344DB781A069D4B9A21DD
:103BD00089008C46BC4463449B781B041A43994B70
:103BE0009A2189008C46BC4463445B781B021343D2
:103BF000944A9A2189008C46BC446244127813434B
:103C00009521890079180B603B191621180003F0E3
:103C1000E1F87B19B9193819042202F031FE894BF9
:103C20009A2189008C46BC446344DB781A06854B94
:103C30009A2189008C46BC4463449B781B041A4338
:103C4000804B9A2189008C46BC4463445B781B02FC
:103C500013437C4A9A2189008C46BC446244127802
:103C600013439421890079180B603B191C2118001B
:103C700003F0B0F87B19B9193819042202F000FEDC
:103C8000704B9A2189008C46BC4463445B781B02CC
:103C90006C4A9A2189008C46BC44624412781343D2
:103CA0009325AD0079190B6096229200BB181A6813
:103CB0003B191100180003F08DF87B191B68DA0816
:103CC00061497B181A707B181B78022B00D095E095
:103CD0005D4BFB181B7895229200BA18126853436B
:103CE00094229200BA181268013A5343FA68D31822
:103CF00097229200BA181360002399229200BA18F2
:103D0000136057E0504BFB181B7895229200BA18AD
:103D100012685A431823FB184C491C20381802F02B
:103D2000AFFD4B4B802252059A6197239B00FB18F5
:103D30001B6880211800FDF76FFC00239822920079
:103D4000BA1813600EE0414A9824A4003B191B687E
:103D5000D3181B781800FFF767FC3B191B68013369
:103D60003A191360384BFB181B7895229200BA1849
:103D70001268534398229200BA1812689A42E2D30A
:103D8000334B802252019A612F4BFB181B789522EE
:103D90009200BA1812685343972189007A18126862
:103DA000D31A7A18136099229200BB181B6801334A
:103DB000BA18136099239B00FB181A6894239B0080
:103DC000FB181B689A429DD395239B00FB181B6828
:103DD0009AB27B681A8094239B00FB181B689AB2E6
:103DE0003B681A809C239B0010229446BC44634489
:103DF0001B68154ABA1812781A700EE07B68002208
:103E00001A803B6800221A809C239B001022944653
:103E1000BC4463441B6800221A701C23FB18180062
:103E200002F0A0FF084BFB181B78022B01D10123E5
:103E300000E000231800BD469B239B009D44F0BD7D
:103E400094FDFFFFACFDFFFF4B0200009803002034
:103E500000040048F0B5AE4CA54400AFF860B9606E
:103E60007A603B60AB4BFB1801221A70002395224D
:103E70009200BA181360A84BFB1800221A80B96888
:103E800020243B190122180002F042FA3B190021BC
:103E9000180002F09FFF1C257B191426B919381948
:103EA000022202F0EDFC3B190221180002F092FF01
:103EB0007B19B9193819022202F0E2FC3B190421DE
:103EC000180002F087FF7B19B9193819022202F095
:103ED000D7FC924B982292009446BC4463441B78D2
:103EE0001B021AB28D4B982189008C46BC44634456
:103EF0005B781BB213431AB2894BFB181A80864BAE
:103F0000FB181B88874A93423ED0834BFB181A88C4
:103F1000FF231B029A4239D0814BFB181A88952344
:103F20009B00FB181B68D3189A1C2023FB18110058
:103F3000180002F04FFF031E2AD11C23FB18142285
:103F4000B9182022B818042202F09AFC734B982268
:103F500092009446BC4463441B781B021AB26F4B18
:103F6000982189008C46BC4463445B781BB21343A0
:103F70001AB2694BFB181A8095229200BB181B6875
:103F80000433BA181360BAE7C04602E0C04600E046
:103F9000C046634BFB181A8895239B00FB181B68CF
:103FA000D318DA1C20243B191100180002F012FF6C
:103FB0001C23FB181422B9183819042202F060FCE3
:103FC000564B982292009446BC4463441B781B02D3
:103FD0001AB2524B982189008C46BC4463445B78EA
:103FE0001BB213431BB29AB23B681A804B4B982208
:103FF00092009446BC4463449B781B021AB2474B20
:10400000982189008C46BC446344DB781BB213437F
:104010001BB29AB27B681A803B190021180002F08B
:10402000D9FEFDF7FDFDFB6802211800FFF7A1FA9C
:1040300053E01C23FC1880231A013B492023F81865
:10404000230002F01DFCFB69384A934209D8FB6942
:1040500096229200BA1813602E4BFB1800221A7099
:104060000EE080231B0196229200BA18136007E02D
:104070002F4B1800FDF7E0FB03001800FDF7B2FA24
:10408000FDF702FE03001A0096239B00FB181B6835
:104090009342EDD894239B00FB1800221A8010E075
:1040A0009424A4003B191B881F4AD25C84235B0321
:1040B00011001800FDF7F6FA3B191A883B19013276
:1040C0001A8094239B00FB181B8896229200BA1832
:1040D00012689A42E4D8FDF7C7FD0E4BFB181B7817
:1040E000002BA6D196239B00FB181B68DBB218009F
:1040F000FDF7EAFEFDF776FD2023FB18180002F01D
:1041000031FE01231800BD4699239B009D44F0BD5C
:104110009CFDFFFF5F02000052020000B4FDFFFFA4
:104120004E020000C0FF000098030020FF070000BF
:10413000E8241000B0B584B000AF0200FB1D1A7077
:10414000FB1D1B780B4A9B00D31804331B685B686C
:10415000FA1D127807498A18127A0F257C19100067
:104160009847030023707B191B781800BD4604B0E4
:10417000B0BDC0462001002090B585B000AF020060
:10418000FB1D1A700F23FB1800221A70FB1D1B78F1
:10419000114AD35C002B17D1FB1D1B780E4A01215D
:1041A000D154FB1D1B780C4A9B00D31804331B68A9
:1041B0001B68FA1D127808498A18127A0F217C1898
:1041C00010009847030023700F23FB181B7818007A
:1041D000BD4605B090BDC04620010020F0B587B0B7
:1041E00000AFB9607A603B600F217B18021C1A7027
:1041F0007B181B780C4A9B00D31804331B689D68FE
:104200007B181B78084AD318187A1726BC193B6804
:104210007A68B968A84703002370BB191B78180097
:10422000BD4607B0F0BDC04620010020F0B587B004
:1042300000AFB9607A603B600F217B18021C1A70D6
:104240007B181B780C4A9B00D31804331B68DD686D
:104250007B181B78084AD318187A1726BC193B68B4
:104260007A68B968A84703002370BB191B78180047
:10427000BD4607B0F0BDC04620010020F0B585B0B6
:1042800000AF3A60FB1D021C1A70BB1D0A1C1A709D
:10429000FB1D1B780C4A9B00D31804331B681B6959
:1042A000FA1D127808498A18107A0F26BC193D6841
:1042B000BA1D11782A00984703002370BB191B7898
:1042C0001800BD4605B0F0BD2001002080B586B0C5
:1042D00000AFF860B9607A60FB687B61BB683B61E6
:1042E00007E03A69531C3B617B69591C796112787C
:1042F0001A707B685A1E7A60002BF2D1C046BD4608
:1043000006B080BD80B586B000AFF860B9607A6055
:10431000FB687B6105E07B695A1C7A61BA68D2B29E
:104320001A707B685A1E7A60002BF4D1C046BD46D5
:1043300006B080BD80B588B000AFF860B9607A6023
:10434000FB68FB61BB68BB6100237B61C0467B6887
:104350005A1E7A60002B0DD0FB695A1CFA611B783B
:104360001900BB695A1CBA611B78CB1A7B617B6947
:10437000002BECD07B691800BD4608B080BD80B52D
:1043800082B000AF7860396002E07B6801337B6007
:104390007B681B78002B05D07B681B781A003B6874
:1043A0009342F2D17B681B781800BD4602B080BDF5
:1043B00080B584B000AF786039600023BB60BB6813
:1043C000FB6038E02F49FA6813005B009B189B00E4
:1043D0005B58002B2AD02B49FA6813005B009B180E
:1043E0009B005A58796880239B00CB589A421FD172
:1043F0002449FA6813005B009B189B00CB18043318
:104400001A68796882239B00CB589A4210D11D49C3
:10441000FA6813005B009B189B00CB1808331A88BE
:104420007B6819495B5A9A4202D107E00123BB60BD
:10443000FB680133FB60FB68012BC3D9FB68022BCF
:1044400009D1BB68002B02D13B68022B01D10023AC
:1044500014E0122312E03B68002B0CD10949FA68E2
:1044600013005B009B189B00CB180A331A8880232B
:104470005B009A4201D1102300E000231800BD46E2
:1044800004B080BD080100200602000080B582B0A3
:1044900000AF00237B6002E07B6801337B607B68B8
:1044A000012B08D808497A6813005B009B189B0011
:1044B0005B58002BF0D17B68023B5A1E9341DBB264
:1044C0001800BD4602B080BD0801002080B584B050
:1044D00000AF786039600023FB602CE05549FA6832
:1044E00013005B009B189B005A58796880239B003F
:1044F000CB589A421CD14F49FA6813005B009B18B5
:104500009B00CB1804331A68796882239B00CB5830
:104510009A420DD14749FA6813005B009B189B0033
:10452000CB1808331A887B6843495B5A9A4206D0F5
:10453000FB680133FB60FB68012BCFD900E0C0466C
:10454000FB68022B45D10023FB6002E0FB680133CE
:10455000FB60FB68012B08D83649FA6813005B0042
:104560009B189B005B58002BF0D1FB68022B01D1FC
:1045700000235AE07A6880239B00D0582D49FA68BE
:1045800013005B009B189B0058507A6882239B00A5
:10459000D1582848FA6813005B009B189B00C31889
:1045A000043319607B68244A985A2249FA68130038
:1045B0005B009B189B00CB180833021C1A801D4916
:1045C000FA6813005B009B189B00CB180A3300228B
:1045D0001A803B68002B0CD01649FA6813005B0068
:1045E0009B189B00CB180A331B88002B01D000239B
:1045F0001BE03B68002B0BD10E49FA6813005B00EF
:104600009B189B00CB180A331B8801339AB201E038
:1046100080235A000748F9680B005B005B189B0079
:10462000C3180A331A80FB6801331800BD4604B072
:1046300080BDC046080100200602000090B585B08C
:1046400000AF78607B68013B7B607B68012B3DD8C5
:104650000E24391923487A6813005B009B189B00CD
:10466000C3180A331B880B803B191A8880235B0010
:104670009A4203D10E23FB1800221A800E23FB1846
:104680001B88002B05D00E217B181A887B18013A55
:104690001A8014497A6813005B009B189B00CB18A2
:1046A0000A330E217A1812881A807B181B88002B77
:1046B00007D10C497A6813005B009B189B0000220D
:1046C0005A500D23FB1800221A7003E00D23FB182B
:1046D00002221A700D23FB181B781800BD4605B086
:1046E00090BDC0460801002080B584B000AF78605E
:1046F0000023FB6014E00E49FA6813005B009B186E
:104700009B005B587A689A4207D10949FA681300FE
:104710005B009B189B0000225A50FB680133FB6032
:10472000FB68012BE7D9C046BD4604B080BDC0463A
:104730000801002080B586B000AF78600F23FB1819
:1047400000221A707A6881239B00D35C002B3ED034
:104750007A688B239B00D3587B617B681F4A985CE7
:1047600079687A690123FFF761FD031E04D00F23E6
:10477000FB1801221A702AE07A6881239B0000212D
:10478000D1547A6888239B00D3587A69D21A796801
:1047900086239B00CB589A4219D27B68104A9B5CB7
:1047A0003B6111E07A6886239B00D3587A69D3185D
:1047B0007B617B68094A985C79687A690123FFF715
:1047C00035FD3B69013B3B613B69012BEAD80F2377
:1047D000FB181B781800BD4606B080BD0102000022
:1047E00003020000B0B584B000AF786039600F23D9
:1047F000FB1800221A707A688B239B00D3583A6802
:104800009A4221D00F257C197B681800FFF792FF90
:10481000030023707B191B78002B15D17B680E4A8F
:10482000985C79683A680123FFF7D8FC031E06D02C
:1048300001235B423B600F23FB1801221A707A6848
:104840008B239B003968D1500F23FB181B7818006D
:10485000BD4604B0B0BDC04601020000B0B584B092
:1048600000AF78600F257C197B681800FFF762FFA6
:10487000030023707B191B78002B00D0B4E07A680A
:1048800080239B00D35C032B00D09FE07B685A4AB7
:104890009B5C012B00D099E0786880239B001A0074
:1048A0000021FFF72FFD7A68FF235B005521D154CB
:1048B0007B68524AAA2199547B6852221A707B68FD
:1048C00052225A707B6861229A707B684122DA70AA
:1048D0007A68F2235B007221D1547A68E623FF33B1
:1048E0007221D1547A68F3235B004121D1547A6854
:1048F000E823FF336121D1547A6884239B00D35885
:10490000D9B27A68F4235B00D1547A6884239B007F
:10491000D3589BB21B0A9BB2D9B27A68EA23FF3301
:10492000D1547A6884239B00D3581B0CD9B27A687F
:10493000F5235B00D1547A6884239B00D3581B0E67
:10494000D9B27A68EC23FF33D1547A6883239B0071
:10495000D358D9B27A68F6235B00D1547A6883239E
:104960009B00D3589BB21B0A9BB2D9B27A68EE2344
:10497000FF33D1547A6883239B00D3581B0CD9B2E0
:104980007A68F7235B00D1547A6883239B00D3585D
:104990001B0ED9B27A68F023FF33D1547A6887238B
:1049A0009B00D358591C7A688B239B00D1507B689D
:1049B000134A985C79687A688B239B00D25801234C
:1049C000FFF734FC7B680C4A002199547B680C4A41
:1049D0009B5C002200211800FFF750FC031E03D04F
:1049E0000F23FB1801221A700F23FB181B781800E5
:1049F000BD4604B0B0BDC04605020000FF01000086
:104A00000102000080B582B000AF786039603B6879
:104A1000023B3B607A6885239B00D358023B3A688F
:104A20009A4201D300230AE07B68074A9B5C1A0084
:104A30003B685A4379688A239B00CB58D3181800E7
:104A4000BD4602B080BDC0460202000080B586B0FF
:104A500000AF786039603B68012B06D97A688523FE
:104A60009B00D3583A689A4202D301237B61A7E0A6
:104A700001235B427B617A6880239B00D35C022B1D
:104A800046D0032B67D0012B00D08FE03B68FB6042
:104A9000FB685B08FA68D318FB607A6888239B0080
:104AA000D258FB685B0AD2187B6811001800FFF728
:104AB00099FE031E00D07CE0FB685A1CFA60DB05FF
:104AC000DB0D7A68D35CBB607A6888239B00D25880
:104AD000FB685B0AD2187B6811001800FFF782FEA2
:104AE000031E68D1FB68DB05DB0D7A68D35C1B0213
:104AF0001A00BB681343BB603B680122134002D01D
:104B0000BB681B0902E0BB681B051B0D7B6157E0FE
:104B10007A6888239B00D2583B681B0AD2187B68AE
:104B200011001800FFF75EFE031E46D13B685A00D5
:104B3000FF235B0013407A68D3183B613B69013364
:104B40001B781B021AB23B691B781BB213431BB2C2
:104B50009BB27B6134E07A6888239B00D2583B6823
:104B6000DB09D2187B6811001800FFF73BFE031E1B
:104B700025D13B689A00FE235B0013407A68D31866
:104B80003B613B6903331B781A063B6902331B7890
:104B90001B0413433A6901321278120213433A6933
:104BA000127813431B011B097B6109E001237B6120
:104BB00006E0C04604E0C04602E0C04600E0C04651
:104BC0007B691800BD4606B080BDB0B588B000AFA7
:104BD000F860B9607A60BB68012B06D9FA68852352
:104BE0009B00D358BA689A4204D31F23FB180222B1
:104BF0001A700FE1FA6880239B00D35C022B00D16E
:104C00007EE0032B00D1A9E0012B00D0F6E0BB68C9
:104C10007B617B695B087A69D3187B61FA688823BA
:104C20009B00D2587B695B0AD2181F257C19FB6850
:104C300011001800FFF7D6FD030023707B191B78C5
:104C4000002B00D0DFE07B695A1C7A61DB05DB0DAD
:104C5000FA68D318BB61BB68012213400DD0BB6951
:104C60001B785BB20F2213405AB27B68DBB21B0188
:104C70005BB213435BB2DBB201E07B68DBB2BA69C3
:104C80001370FA6881239B000121D154FA688823AC
:104C90009B00D2587B695B0AD2181F257C19FB68E0
:104CA00011001800FFF79EFD030023707B191B788D
:104CB000002B00D0A9E07B69DB05DB0DFA68D31877
:104CC000BB61BB680122134003D07B681B09DBB2C8
:104CD0000EE0BB691B785BB20F2293435AB27B682C
:104CE0001B0A5BB20F210B405BB213435BB2DBB21A
:104CF000BA691370FA6881239B000121D15489E0BD
:104D0000FA6888239B00D258BB681B0AD2181F255B
:104D10007C19FB6811001800FFF764FD0300237085
:104D20007B191B78002B72D1BB685A00FF235B00F4
:104D30001340FA68D318BB617B68DAB2BB691A709A
:104D40007B689BB21B0A9AB2BB690133D2B21A705C
:104D5000FA6881239B000121D1545BE0FA68882323
:104D60009B00D258BB68DB09D2181F257C19FB6851
:104D700011001800FFF736FD030023707B191B7824
:104D8000002B46D1BB689A00FE235B001340FA68F3
:104D9000D318BB61BB6903331B781A06BB690233A6
:104DA0001B781B041343BA690132127812021343B1
:104DB000BA69127813431B0F1B077A6813437B6091
:104DC0007B68DAB2BB691A707B689BB21B0A9AB225
:104DD000BB690133D2B21A707B681A0CBB6902330B
:104DE000D2B21A707B681A0EBB690333D2B21A7042
:104DF000FA6881239B000121D1540BE01F23FB188B
:104E000002221A7006E0C04604E0C04602E0C04636
:104E100000E0C0461F23FB181B781800BD4608B0F1
:104E2000B0BD0000B0B584B000AF786039603B68B9
:104E3000012B06D97A6885239B00D3583A689A4299
:104E400004D30F23FB1802221A7052E00F23FB1821
:104E500000221A7042E03A687B6811001800FFF7E0
:104E6000F5FD0300BB60BB68002B3FD0BB68012B86
:104E700004D10F23FB1802221A703AE0BB680133F9
:104E800004D10F23FB1801221A7032E00F257C1980
:104E900039687B6800221800FFF797FE0300237033
:104EA0007B191B78002B23D17A6884239B00D3586D
:104EB000013311D07A6884239B00D358591C7A6837
:104EC00084239B00D1507B680D4A9B5C01221343D5
:104ED000D9B27B680A4A9954BB683B607A688523DB
:104EE0009B00D3583A689A42B5D302E0C04600E02E
:104EF000C0460F23FB181B781800BD4604B0B0BD98
:104F000005020000B0B586B000AF786039603B683C
:104F1000002B11D17A6883239B00D3583B613B69F6
:104F2000002B06D07A6885239B00D3583A699A42B1
:104F30001FD301233B611CE03A687B681100180015
:104F4000FFF784FD0300BB60BB68012B01D8012380
:104F500086E0BB68013301D1BB6881E07A688523B4
:104F60009B00D358BA689A4201D2BB6878E03B688C
:104F70003B613B697B617B6901337B617A68852397
:104F80009B00D3587A699A4207D302237B617A69DE
:104F90003B699A4201D9002362E07A697B6811007B
:104FA0001800FFF753FD0300BB60BB68002B0DD05A
:104FB000BB68013302D0BB68012B01D1BB684FE055
:104FC0007A693B699A42D6D1002349E0C0460F2551
:104FD0007C19254A79697B681800FFF7F6FD030004
:104FE00023707B191B78002B0CD13B68002B09D058
:104FF0000F23FC187A6939687B681800FFF7E5FD14
:10500000030023700F23FB181B78002B1DD17A6837
:1050100083239B007969D1507A6884239B00D358FD
:1050200001331CD07A6884239B00D358591E7A68B8
:1050300084239B00D1507B680C4A9B5C0122134364
:10504000D9B27B68094A995409E00F23FB181B78F1
:10505000012B02D101235B4200E001237B617B69CC
:105060001800BD4606B0B0BDFFFFFF0F05020000EF
:1050700080B586B000AF786039607A6889239B007C
:10508000D35804333B613B68580A7A6880239B00FD
:10509000D358134A9B5C1900FBF748F803007B6167
:1050A0003B691A1D3A611B68FB60FB68002B01D14C
:1050B000002310E07A69FB689A4207D37A69FB689B
:1050C000D31A7B613B6904333B61E9E7C0463B6926
:1050D0001A687B69D3181800BD4606B080BDC0466B
:1050E0000202000080B586B000AF786039603B688E
:1050F00099B27B68514A99527A6882239B00D358AF
:105100007B617B69012B09D07A6880239B00D25890
:1051100085239B00D3587A699A4201D3022388E001
:105120007B69002B10D17A6880239B00D2588023A2
:105130009B00D35C032B07D17A6880239B00D25855
:1051400089239B00D3587B617B69002B15D17A683A
:1051500080239B00D25882239B00D35A1A003B68BD
:10516000934201D3022364E07A6880239B00D258E3
:1051700089239B00D3583B613AE07A6880239B00E7
:10518000D3582F4A9B5C1B01FB6022E07A68802386
:105190009B00D3587A6911001800FFF757FC0300F1
:1051A0007B617B69013301D1012342E07B69012BE3
:1051B00009D97A6880239B00D25885239B00D35855
:1051C0007A699A4201D3022333E03A68FB68D31A22
:1051D0003B603A68FB689A42D8D27A6880239B0089
:1051E000D3587A6911001800FFF70CFC03003B61EB
:1051F0007A6883239B007969D1503B69002B01D1E8
:10520000022316E03B681A093B69D1187A688423A7
:105210009B00D1507A6880239B00D35819003B68CB
:105220000F2213405B01C9187A6885239B00D15077
:1052300000231800BD4606B080BDC046060200002F
:105240000202000090B587B000AF786039607B68DB
:10525000874A9B5A0133FB60FB681B041B0C05D07B
:105260007A6884239B00D358002B01D10423FBE0F0
:10527000FB680F22134000D0E2E07A6884239B0091
:10528000D358591C7A6884239B00D1507A688323B1
:105290009B00D358002B0DD17A6880239B00D258F5
:1052A00082239B00D35A1A00FB68934200D2C7E0C6
:1052B0000423D9E0FB681B097968802292008A5890
:1052C0006C49525C013A134000D0B9E07A688023FF
:1052D0009B00D0587A6883239B00D3581900FFF7AE
:1052E000B5FB03007B617B69012B01D80223BBE086
:1052F0007B69013301D10123B6E07A6880239B00EA
:10530000D25885239B00D3587A699A4200D284E010
:105310003B68002B01D10423A6E07A6880239B0020
:10532000D0587A6883239B00D3581900FFF7EAFD11
:1053300003007B617B69002B01D1072394E07B692B
:10534000012B01D102238FE07B69013301D10123BD
:105350008AE07A6880239B00D3581800FFF7EAF9A7
:10536000031E01D001237FE07A6880239B00D3587D
:10537000180080239B001A000021FEF7C3FF7A6803
:1053800080239B00D0587A6880239B00D4587B6987
:105390001900FFF737FB02008B239B00E25000232C
:1053A0003B6120E07A6880239B00D25881239B00D8
:1053B0000121D1547A6880239B00D3581800FFF74D
:1053C000B9F9031E01D001234EE07A6880239B00C7
:1053D000D3588B2292009A58511C8B2292009950DC
:1053E0003B6901333B617A6880239B00D358214A93
:1053F0009B5C1A003B699342D4D37A6880239B005C
:10540000D2588B239B00D1587A6880239B00D258B6
:105410003B69C91A8B239B00D1507A6883239B0078
:105420007969D1507A6880239B00D3587A6911003A
:105430001800FFF7E7FA01007A6884239B00D15037
:10544000FB6899B27B680A4A99527A6880239B006C
:10545000D3581900FB680F2213405B01C9187A6802
:1054600085239B00D15000231800BD4607B090BD96
:105470000602000002020000B0B584B000AF786000
:1054800039600F257C197B6800211800FFF72AFE80
:10549000030023707B191B78002B3BD10023BB60DA
:1054A0007A6880239B00D0587A6884239B00D35865
:1054B0000F257C191900FFF795F9030023707B195C
:1054C0001B78002B25D17A6885239B00D3581B7845
:1054D000E52B06D07A6885239B00D3581B78002BD8
:1054E00007D1BB680133BB60BA683B689A4202D1FE
:1054F00010E00023BB600F257C197B680121180098
:10550000FFF7A0FE030023707B191B78002BC7D088
:1055100000E0C0460F23FB181B78042B03D10F2398
:10552000FB1807221A700F23FB181B781800BD46C2
:1055300004B0B0BD80B584B000AF786039603B681E
:105540001B331B781B021AB23B681A331B781BB241
:1055500013431BB29BB2FB607A6880239B00D35C31
:10556000032B0FD13B6815331B781B021AB23B6823
:1055700014331B781BB213431BB29BB21B04FA6893
:105580001343FB60FB681800BD4604B080BD80B5C6
:1055900082B000AF786039607B681A333A68D2B263
:1055A0001A703B689BB21B0A9AB27B681B33D2B25B
:1055B0001A703B681A0C7B681433D2B21A703B68BD
:1055C0001B0C9BB21B0A9AB27B681533D2B21A70BD
:1055D000C046BD4602B080BDB0B586B000AF7860B1
:1055E00017257C197B6800211800FFF77BFD03005D
:1055F00023707B191B78002B03D01723FB181B7813
:105600004BE07A6880239B00D0587A6884239B0003
:10561000D35817257C191900FFF7E4F8030023700D
:105620007B191B78002B32D17A6885239B00D358D5
:105630003B610F217B183A6912781A707B181B782E
:10564000002B04D11723FB1804221A7022E03B69B7
:105650000B331B781A00082313400AD17A6886237B
:105660009B00D1583B690B221800FEF763FE031E16
:105670000FD017257C197B6800211800FFF7E2FD89
:10568000030023707B191B78002BBAD002E0C046C0
:1056900000E0C0461723FB181B781800BD4606B073
:1056A000B0BDB0B584B000AF78600F257C197B68C1
:1056B00001211800FFF7E0FE030023707B191B781F
:1056C000002B2FD17A6880239B00D0587A688423DE
:1056D0009B00D3580F257C191900FFF783F80300AE
:1056E00023707B191B78002B1CD17A6885239B00C3
:1056F000D358202200211800FEF704FE7A68852383
:105700009B00D0587A6886239B00D3580B2219003F
:10571000FEF7DCFD7A6880239B00D25881239B0032
:105720000121D1540F23FB181B781800BD4604B08B
:10573000B0BD000080B588B000AF786039603B68CC
:105740001B68FB6002E0FB680133FB60FB681B78B1
:105750002F2BF8D0FB681B785C2BF4D07A6886235B
:105760009B00D358BB60BB680B2220211800FEF7BA
:10577000C9FD1F23FB1800221A7000233B613B69FF
:105780007B610823BB617B695A1C7A61FA68D21875
:105790001E217B1812781A707B181B78202B00D8DA
:1057A0007EE01E23FB181B782F2B00D178E01E23F0
:1057B000FB181B785C2B00D172E01E23FB181B78B2
:1057C0002E2B03D03A69BB699A4214D3BB69082BCC
:1057D00004D11E23FB181B782E2B01D00623A7E033
:1057E00008233B610B23BB611F22BB18BA18127838
:1057F00092001A7053E01E23FB181B785BB2002B3B
:105800000FDA1F22BB18BA18127803210A431A7044
:105810001E217B181B78803B1A007B1846498A5C46
:105820001A701E23FB181A78444B11001800FEF75B
:10583000A6FD031E01D006237AE01E23FB181B7869
:10584000402B0CD91E23FB181B785A2B07D81F227C
:10585000BB18BA18127802210A431A7016E01E23E8
:10586000FB181B78602B11D91E23FB181B787A2B91
:105870000CD81F22BB18BA18127801210A431A70DB
:105880001E22BB18BA181278203A1A703B695A1CAB
:105890003A61BA68D3181E22BA1812781A7072E7E1
:1058A000FA687B69D2183B681A601E23FB181B78C4
:1058B000202B01D8042200E000221E23FB181A70BE
:1058C0003B69002B01D1062332E0BB681B78E52B36
:1058D00002D1BB6805221A70BB69082B05D11F22B3
:1058E000BB18BA18127892001A701F23FB181B7885
:1058F00003221340012B06D11E22BB18BA181278BE
:1059000010210A431A701F23FB181B780C22134026
:10591000042B06D11E22BB18BA18127808210A439C
:105920001A70BB680B331E22BA1812781A70002343
:105930001800BD4608B080BD0CAB00088CAB000859
:10594000B0B584B000AF786039603B681B782F2B0E
:1059500003D03B681B785C2B02D13B6801333B6072
:105960007A6882239B000021D1503B681B781F2B53
:105970000ED80F23FC187B6800211800FFF7B2FB3C
:10598000030023707A6885239B000021D1505CE0DE
:105990000F257C193A007B6811001800FFF7CAFE3A
:1059A000030023707B191B78002B49D10F257C192C
:1059B0007B681800FFF710FE030023707A688623C7
:1059C0009B00D2580E23FB18D27A1A707B191B78D1
:1059D000002B0FD00F23FB181B78042B32D10E2382
:1059E000FB181B78042213402CD10F23FB1805222F
:1059F0001A7027E00E23FB181B780422134023D1D2
:105A00007A6885239B00D358BB60BB680B331B7837
:105A10001A001023134004D10F23FB1805221A701B
:105A200013E07A6880239B00D358BA6811001800ED
:105A3000FFF780FD01007A6882239B00D150A7E721
:105A4000C04602E0C04600E0C0460F23FB181B78AA
:105A50001800BD4604B0B0BD80B586B000AF786018
:105A600001235B423B617B681B68002B31D07B6864
:105A70001B687B6102E07B6901337B617B691B787A
:105A8000202B03D97B691B783A2BF4D17B691B78D7
:105A90003A2B1CD17B681B68FB60FB685A1CFA60C0
:105AA0001B78303BBB60BB68092B0ED8FA687B695A
:105AB0009A420AD1BB68002B07D1BB683B617B6966
:105AC00001337B617B687A691A603B6902E00023DD
:105AD0003B613B691800BD4606B080BD80B582B011
