:020000040800F2
:10000000000002203D690008A1680008A3680008FC
:10001000A5680008A7680008A9680008000000009B
:10002000000000000000000000000000AB680008B5
:10003000AD68000800000000AF680008B168000863
:100040008D6900088D6900088D6900088D690008B8
:100050008D6900088D6900088D6900088D690008A8
:100060008D6900088D6900088D6900088D69000898
:100070008D6900088D6900088D6900088D69000888
:100080008D6900088D6900088D6900088D69000878
:100090008D6900088D6900088D690008BD68000839
:1000A0008D6900088D6900088D6900088D69000858
:1000B0008D6900088D6900088D6900088D69000848
:1000C0008D6900088D6900088D6900088D69000838
:1000D0008D6900088D6900088D6900088D69000828
:1000E0008D6900088D6900088D6900088D69000818
:1000F0008D6900088D6900088D6900088D69000808
:100100008D6900088D6900088D6900088D690008F7
:100110008D6900088D6900088D6900088D690008E7
:100120008D6900088D6900088D6900088D690008D7
:100130008D69000800000000000000008D690008C3
:100140008D6900088D6900088D6900088D690008B7
:100150008D6900088D6900088D6900088D690008A7
:100160008D6900088D6900088D6900088D69000897
:100170008D6900088D690008000000008D69000885
:080180008D6900088D6900087B
:1001900010B5054C237833B9044B13B10448AFF3C1
:1001A00000800123237010BDE0000020000000004B
:1001B0001072000808B5034B1BB103490348AFF3A5
:1001C000008008BD00000000E4000020107200085C
:1001D00010F8012B11F8013B012A28BF9A42F7D0F1
:1001E000D01A7047034613F8012B002AFBD1181AC6
:1001F000013870470000000000000000000000000F
:1002000001F0FF01102A2BDB10F0070F08D010F8C7
:10021000013B013A8B422DD010F0070F42B3F6D1CB
:10022000F0B441EA012141EA014122F007047FF0E4
:1002300000070023F0E80256083C85EA010586EA3B
:10024000010685FA47F5A3FA87F586FA47F6A5FA77
:1002500087F68EB9EED1F0BC01F0FF0102F0070283
:1002600032B110F8013B013A83EA010313B1F8D12E
:100270000020704701387047002D06BF354603380F
:10028000073815F0010F07D1013015F4807F02BF48
:10029000013015F4C03F0130F0BC0138704700BF99
:1002A00053B94AB9002908BF00281CBF4FF0FF31DD
:1002B0004FF0FF3000F072B9ADF1080C6DE904CEDB
:1002C00000F006F8DDF804E0DDE9022304B0704731
:1002D0002DE9F047089E04468846002B4BD18A4200
:1002E000154667D9B2FA82F24AB1C2F1200701FA83
:1002F00002F320FA07F7954047EA030894404FEAD3
:10030000154E230CB8FBFEF71FFA85FC0EFB178871
:1003100043EA084307FB0CF1994209D9EB1807F1AE
:10032000FF3080F01B81994240F21881023F2B443C
:100330005B1AA4B2B3FBFEF00EFB103344EA034495
:1003400000FB0CFCA44509D92C1900F1FF3380F007
:100350000781A44540F2048102382C4440EA07405A
:10036000A4EB0C0400271EB1D4400023C6E90043CF
:100370003946BDE8F0878B4209D9002E00F0EB80AA
:100380000027C6E9000138463946BDE8F087B3FAD0
:1003900083F7002F47D18B4202D3824200F2FA80CA
:1003A000841A61EB030301209846002EE0D0C6E9D1
:1003B0000048DDE702B9FFDEB2FA82F2002A40F01F
:1003C0008F80491B4FEA154E1FFA85F80127B1FBB4
:1003D000FEFC230C0EFB1C1143EA014308FB0CF14D
:1003E000994207D9EB180CF1FF3002D2994200F282
:1003F000CD808446591AA3B2B1FBFEF00EFB101457
:1004000043EA044408FB00F8A04507D92C1900F181
:10041000FF3302D2A04500F2B6801846A4EB0804D0
:1004200040EA0C409FE7C7F1200CBB4022FA0CFECB
:100430004EEA030E01FA07F420FA0CF521FA0CF348
:100440004FEA1E482543B3FBF8F92C0C08FB19337F
:100450001FFA8EFA44EA034309FB0AF49C4202FAAB
:1004600007F200FA07F10BD91EEB030309F1FF3085
:1004700080F087809C4240F28480A9F10209734495
:100480001B1BADB2B3FBF8F008FB103345EA034485
:1004900000FB0AFAA24508D91EEB040400F1FF3361
:1004A0006BD2A24569D90238744440EA0940A0FBE6
:1004B0000289A4EB0A044C45C2464B4654D351D0A2
:1004C000002E69D0B1EB0A0564EB030404FA0CFCBE
:1004D000FD40FC404CEA0505C6E90054002747E70B
:1004E000C2F1200320FA03F7954001FA02F021FA45
:1004F00003F34FEA154E3843010CB3FBFEF71FFA26
:1005000085F80EFB173341EA034107FB08F38B42E2
:1005100004FA02F407D9691807F1FF3C2FD28B4285
:100520002DD9023F2944CB1A81B2B3FBFEF00EFB5A
:10053000103341EA034100FB08F38B4207D96918E5
:1005400000F1FF3C17D28B4215D902382944C91A51
:1005500040EA07473BE73746304609E70746E7E604
:100560001846FBE64145ABD2B8EB020A69EB0E0236
:1005700001381346A4E76046E9E7184695E7674661
:10058000D1E781467CE702382C4447E7ACF1020C06
:100590002B442FE7384608E73746E9E6704700BFA7
:1005A00010B504460E4B18784FF47A73B3FBF0F392
:1005B0000C4A1068B0FBF3F000F0A8F868B90F2CF3
:1005C00001D901200AE0002221464FF0FF3000F05F
:1005D0005DF8034B5C60002000E0012010BD00BF0F
:1005E000000000206400002008B50B4B1A6842F49C
:1005F00000721A601A6842F480621A601A6842F443
:1006000080721A60032000F02FF80020FFF7C8FF67
:1006100006F0B0F8002008BD003C0240034A116813
:10062000034B1B780B441360704700BFA8130020D6
:1006300000000020014B1868704700BFA81300207D
:1006400038B50446FFF7F6FF0546B4F1FF3F02D088
:10065000044B1B781C44FFF7EDFF401BA042FAD36C
:1006600038BD00BF00000020074AD36823F4E063D0
:100670001B041B0C000200F4E060184340F0BF6054
:1006800040F40030D060704700ED00E030B4174B0C
:10069000DB68C3F30223C3F10704042C28BF04243E
:1006A0001D1D062D18D9033B4FF0FF3505FA04F444
:1006B00021EA0401994005FA03F322EA03031943EE
:1006C00000280BDB0901C9B200F1604000F5614070
:1006D00080F8001330BC70470023E5E700F00F00FE
:1006E0000901C9B2024B1954F4E700BF00ED00E064
:1006F00014ED00E000F01F02400901239340024A7C
:1007000042F82030704700BF00E100E00138B0F14E
:10071000807F0AD2064B5860064AF02182F82310E7
:100720000020986007221A6070470120704700BFC0
:1007300010E000E000ED00E0042805D0054A136851
:1007400023F0040313607047024A136843F0040364
:100750001360704710E000E0704708B5FFF7FCFF3A
:1007600008BD000000230F2B00F2D780F0B482B048
:1007700039E0072200E00022B2403A430234674EDB
:1007800046F82420664A1468EA4302EA04064F68E1
:1007900017F4803F01D045EA0406614C2660646886
:1007A00002EA04064F6817F4003F01D045EA040648
:1007B0005B4C6660A46802EA04064F6817F4801F69
:1007C00001D045EA0406564CA660E46822404E6813
:1007D00016F4001F01D045EA0402514CE2600133D7
:1007E0000F2B00F2978001229A400C6804EA020560
:1007F000AA42F4D14C68022C01D0122C10D1DE0890
:10080000083650F826C003F00704A7000F24BC40A8
:100810002CEA040C0C69BC4044EA0C0440F8264065
:1008200004685F000326BE40F64306EA040C4C68E9
:1008300004F00304BC4044EA0C0404604C6804F176
:10084000FF3CBCF1010F03D9112C01D0122C10D1A7
:10085000846806EA040CCC68BC4044EA0C0484605A
:10086000446824EA02024C68C4F300149C40144318
:100870004460C26816408A68BA403243C2604A681F
:1008800012F0805FABD000220192264A546C44F4EF
:1008900080445464526C02F480420192019A9C0894
:1008A000A61C1E4A52F8267003F0030296000F227F
:1008B000B24027EA02071C4A90423FF45CAF02F5BF
:1008C000806290421AD002F58062904218D002F500
:1008D0008062904216D002F58062904214D002F5F8
:1008E0008062904212D002F58062904210D002F5F0
:1008F000806290423FF43DAF08223DE701223BE792
:10090000022239E7032237E7042235E7052233E7DD
:10091000062231E702B0F0BC704770470038014052
:10092000003C0140003802400000024012B90904B6
:10093000816170478161704708B5054B5B6903426F
:1009400000D108BD024B586104F08CFAF9E700BFF2
:10095000003C0140002800F0BB8170B582B0044625
:10096000036813F0010F3BD0A74B9B6803F00C0307
:10097000042B2CD0A44B9B6803F00C03082B21D034
:100980006368B3F5803F4FD0B3F5A02F52D09E4B94
:100990001A6822F480321A601A6822F480221A60DF
:1009A0006368002B50D0FFF745FE0546964B1B6849
:1009B00013F4003F14D1FFF73DFE401B6428F5D926
:1009C00003208AE1904B5B6813F4800FD8D08E4BE4
:1009D0001B6813F4003F03D06368002B00F07A819A
:1009E000236813F0020F55D0874B9B6813F00C0F50
:1009F0003ED0854B9B6803F00C03082B33D0E36893
:100A0000002B68D0814B01221A60FFF713FE0546C8
:100A10007D4B1B6813F0020F54D1FFF70BFE401BF8
:100A20000228F5D9032058E1774A136843F480334C
:100A30001360B5E7744B1A6842F480221A601A6892
:100A400042F480321A60ABE7FFF7F4FD05466E4BC7
:100A50001B6813F4003FC3D0FFF7ECFD401B642874
:100A6000F5D9032039E1684B5B6813F4800FC6D1D8
:100A7000654B1B6813F0020F04D0E368012B01D013
:100A800001202AE1604A136823F0F803216943EA50
:100A9000C1031360236813F0080F40D0636963B388
:100AA0005B4B01221A60FFF7C5FD0546564B5B6F95
:100AB00013F0020F33D1FFF7BDFD401B0228F5D91B
:100AC00003200AE1504A136823F0F803216943EA3E
:100AD000C1031360DEE74D4B00221A60FFF7AAFD49
:100AE0000546494B1B6813F0020FD3D0FFF7A2FD58
:100AF000401B0228F5D90320EFE0454B00221A6085
:100B0000FFF798FD0546404B5B6F13F0020F06D0D0
:100B1000FFF790FD401B0228F5D90320DDE0236894
:100B200013F0040F79D0384B1B6C13F0805F33D176
:100B300000230193344B1A6C42F080521A641B6CF0
:100B400003F080530193019B0125324B1B6813F482
:100B5000807F23D0A368012B34D0052B38D02A4BBB
:100B60001A6F22F001021A671A6F22F004021A6744
:100B7000A368002B36D0FFF75DFD0646224B1B6FA6
:100B800013F0020F48D1FFF755FD801B41F2883367
:100B90009842F3D90320A0E00025D6E71D4A136848
:100BA00043F480731360FFF745FD0646194B1B683D
:100BB00013F4807FCED1FFF73DFD801B0228F5D9CD
:100BC00003208AE0104A136F43F001031367CFE755
:100BD0000D4B1A6F42F004021A671A6F42F00102BD
:100BE0001A67C5E7FFF726FD0646074B1B6F13F094
:100BF000020F11D0FFF71EFD801B41F2883398428F
:100C0000F3D9032069E000BF0038024000004742EA
:100C1000800E474200700040E5B9A369002B5BD00D
:100C2000304A926802F00C02082A58D0022B17D0E2
:100C30002D4B00221A60FFF7FDFC0446294B1B6870
:100C400013F0007F42D0FFF7F5FC001B0228F5D916
:100C5000032042E0234A136C23F080531364DCE743
:100C6000214B00221A60FFF7E5FC05461D4B1B686F
:100C700013F0007F06D0FFF7DDFC401B0228F5D9FA
:100C800003202AE0E369226A1343626A43EA82137B
:100C9000A26A5208013A43EA0243E26A43EA026363
:100CA000104A5360104B01221A60FFF7C3FC044640
:100CB0000C4B1B6813F0007F06D1FFF7BBFC001B39
:100CC0000228F5D9032008E0002006E0002004E017
:100CD00001207047012000E0002002B070BD01201B
:100CE000FBE700BF0038024060004742304B9B6882
:100CF00003F00C03082B58D12DE9F04B2C4B5A680C
:100D000002F03F025B6813F4800F2BD0284B5B6826
:100D1000C3F388131E4600275C010025E41A65EB27
:100D20000705A90141EA9461A001001B61EB0501DF
:100D3000CB0043EA5073C400A01943EB07018B02B8
:100D400043EA90538402204619460023FFF7A8FA8D
:100D5000174B5B68C3F3014301335B00B0FBF3F057
:100D6000BDE8F08B124B5B68C3F388131E46002767
:100D70005C010025E41A65EB0705A90141EA9461CD
:100D8000A001001B61EB0501CB0043EA5073C400D6
:100D9000A01943EB07018B0243EA905384022046DB
:100DA00019460023FFF77CFAD2E70248704700BFDC
:100DB000003802400024F400002800F09D8070B547
:100DC00004464F4B1B6803F00F038B4209D2CBB292
:100DD0004B4A1370136803F00F038B4201D00120BC
:100DE00070BD236813F0020F17D013F0040F04D066
:100DF000444A936843F4E0539360236813F0080F68
:100E000004D0404A936843F4604393603D4A93683A
:100E100023F0F003A068034393600D46236813F0AA
:100E2000010F32D06368012B21D09A1E012A25D9E7
:100E3000344A126812F0020F60D032498A6822F0F8
:100E4000030213438B60FFF7F5FB06462D4B9B68AF
:100E500003F00C036268B3EB820F16D0FFF7EAFBD6
:100E6000801B41F288339842F0D90320B8E7254A25
:100E7000126812F4003FE0D10120B1E7214A126864
:100E800012F0007FD9D10120AAE71D4B1B6803F0A7
:100E90000F03AB4209D9EAB2194B1A701B6803F071
:100EA0000F03AB4201D001209AE7236813F0040F2F
:100EB00006D0144A936823F4E053E1680B4393602F
:100EC000236813F0080F07D00E4A936823F4604399
:100ED000216943EAC1039360FFF708FF094B9B6850
:100EE000C3F30313084AD35CD840084B18600020B2
:100EF000FFF756FB002073E70120704701206FE7E2
:100F0000003C024000380240B07600086400002037
:100F1000014B1868704700BF6400002000283BD0D8
:100F200010B504460023836290F85130002B2ED078
:100F3000022384F851302268136823F040031360C1
:100F40006368A2681343E26813432269134362692A
:100F50001343A26902F400721343E2691343226A45
:100F60001343A16A22680B431360638B03F00403ED
:100F7000616A22680B4353602268D36923F40063DB
:100F8000D36100206065012384F8513010BD80F8E2
:100F9000503005F039FCCBE70120704708B5014619
:100FA000014800F081F808BD8024100008B541EA2E
:100FB0000021024800F098F808BD00BF842410000A
:100FC00008B500F00101024800F06EF808BD00BF4E
:100FD0008824100008B50146014800F065F808BDF6
:100FE0007C24100070B50E4615461C4601460C4880
:100FF00000F09EF831460B4800F09AF829460A485E
:1010000000F072F804F00301084800F04DF89DF874
:10101000101001F00101064800F046F870BD00BF55
:10102000A4241000A8241000B0241000B424100040
:10103000B824100008B500F00101024800F034F8AF
:1010400008BD00BFBC241000034A13881844C0F335
:101050000B001080704700BFFC000020014B18807F
:10106000704700BFFC000020014B1888704700BF8C
:10107000FC00002038B504460D4640290DD0C4F3CD
:101080000540284301F002F9C4F3072001F0FEF8FF
:10109000E0B201F0FBF815B138BD0404EFE7002021
:1010A00001F0F4F8F8E7000070B504460E46B0F51C
:1010B000841F0ED00A4D4FF08053AB618021204633
:1010C000FFF7D8FF304601F0E1F84FF48053AB61F1
:1010D00070BD044B1B881C440120FFF7B5FFE9E7F6
:1010E00000040240FC00002070B504460E46B0F536
:1010F000841F11D00C4D4FF08053AB6180212046EE
:10110000FFF7B8FFF0B201F0C1F8300A01F0BEF805
:101110004FF48053AB6170BD044B1B881C4402200C
:10112000FFF792FFE6E700BF00040240FC0000204A
:1011300070B505460C46B0F5841F19D0104E4FF01F
:101140008053B36180212846FFF794FFE0B201F09D
:101150009DF8C4F3072001F099F8C4F3074001F0AB
:1011600095F8200E01F092F84FF48053B36170BDF2
:10117000044B1B881D440420FFF766FFDEE700BF19
:1011800000040240FC00002010B5064C4FF08053D4
:10119000A3610021FFF76EFF01F07CF84FF480534C
:1011A000A36110BD0004024038B5094D4FF08053D3
:1011B000AB610021FFF75EFF01F06CF8044601F01F
:1011C00069F844EA00204FF48053AB6180B238BD27
:1011D0000004024038B50D4D4FF08053AB61002143
:1011E000FFF748FF01F056F8044601F053F844EACF
:1011F000002401F04FF844EA004401F04BF84FF4AA
:101200008053AB6144EA006038BD00BF0004024077
:1012100010B50C4C4FF08053A36140214420FFF7E0
:1012200029FF40216220FFF725FF40216820FFF7BA
:1012300021FF40210020FFF71DFF4FF48053A361E1
:1012400010BD00BF0004024008B54FF409711B48EF
:10125000FFF74AFF2B211A48FFF746FF00211948E4
:10126000FFF742FF29211848FFF73EFF4FF4927124
:101270001648FFF739FF0C211548FFF735FF00210D
:101280001448FFF731FF0A211348FFF72DFF002113
:101290001248FFF709FF01211148FFF705FF4FF43E
:1012A000F0711048FFF720FF4FF488710E48FFF7E8
:1012B0001BFF05210D48FFF7F7FE08BD282410008D
:1012C0002C24100034241000382410003C2410007A
:1012D00040241000482410004C241000602410000A
:1012E0006824100030241000442410006C241000E6
:1012F00008B54FF4E1610C48FFF7F6FE03210B48F7
:10130000FFF7D2FE01210A48FFF7CEFE41F27071CD
:101310000848FFF7E9FE03210748FFF7C5FE07214C
:101320000648FFF7C1FE08BD04251000F024100098
:10133000F4241000F8241000FC24100000251000F4
:1013400008B50248FFF720FF08BD00BF9824100031
:1013500008B501210748FFF7A7FE142005F006FA9B
:1013600006210548FFF7A0FE142005F0FFF9FFF75E
:10137000E7FF08BD9C241000A024100008B58321BD
:101380000348FFF791FE81210248FFF78DFE08BD5B
:101390008C2410009024100010B500F057FF00F0CE
:1013A00057FF00F05FFF322005F0E0F9174C0823EB
:1013B000A361142005F0DAF94FF08053A3610021F6
:1013C0000846FFF757FE4FF48053A361FFF720FF55
:1013D000322005F0CBF9FFF7D1FFFFF735FFFFF71C
:1013E00087FFFFF7B5FF4FF000714FF48010FFF754
:1013F0009FFE07490748FFF79BFE00210648FFF7BD
:1014000097FE02210548FFF793FE10BD000402403D
:1014100007000026040010000800100050241000EF
:1014200008B56FF0FF014FF48410FFF781FE08BD8F
:1014300008B500214FF48410FFF77AFE6FF0FE012B
:101440004FF48410FFF774FEFFF70EFE01460248CA
:10145000FFF74AFE08BD00BFE824100010B507489A
:10146000FFF7A2FE04460648FFF79EFE8442F6D12F
:101470000248FFF799FEFFF7F1FD10BDE8241000C8
:10148000E424100008B5FFF7EFFD01460148FFF71F
:101490002BFE08BDE824100010B50748FFF784FEB6
:1014A00004460648FFF780FE201AC0F30B00C0F583
:1014B0007F600C3080B210BDE8241000E4241000DE
:1014C00008B520F07F4141F000714FF48410FFF720
:1014D0002FFE08BD08B500F0070141F018514FF488
:1014E0008410FFF725FE08BD08B540F080514FF489
:1014F0008410FFF71DFE08BD08B520F07F4141F0C4
:1015000080614FF48410FFF713FE08BD10B5044648
:101510006FF0F6014FF48410FFF70AFE24F07F41CC
:101520004FF48410FFF704FE10BD10B504466FF0B1
:10153000F5014FF48410FFF7FBFD24F07F414FF4D9
:101540008410FFF7F5FD10BD08B5064B03EAC03067
:1015500040F08040C1F30E0101434FF48410FFF7C7
:10156000E7FD08BD0080FF3F10B50A4C04EA40507B
:1015700040F00040084C04EA01310143D20102F47A
:101580007862114303F07F0319434FF48410FFF78F
:10159000CFFD10BD0000E03F00F01F0010B505E0DA
:1015A00000214FF48410FFF77FFD2046431CDCB27E
:1015B00010F0030FF4D110BD38B50446FEF712FE4B
:1015C00085B20135ADB204E001344FF48410FFF769
:1015D0006BFD21780029F7D14FF48410FFF764FDEB
:1015E000E8B2FFF7DBFF38BD38B505460C466FF0B3
:1015F000E3014FF48410FFF79BFD29464FF484105C
:10160000FFF796FD21464FF48410FFF791FD38BD9A
:1016100070B504460D461E461046FFF76DFF46F0B6
:1016200050614FF48410FFF783FD09494FF4841093
:10163000FFF77EFD2001290109B200B2FFF784FF08
:101640004FF004514FF48410FFF772FD70BD00BFDE
:101650000200001FF8B506460F4614461D460698C0
:10166000FFF74AFFBDF81C10C1F30B0141F06061A8
:101670004FF48410FFF75CFD0B494FF48410FFF723
:1016800057FD3001390109B200B2FFF75DFF2001BB
:10169000290109B200B2FFF757FF4FF004514FF490
:1016A0008410FFF745FDF8BD0300001FF8B506469E
:1016B0000F4614461D460698FFF71EFFBDF81C1086
:1016C000C1F30B0141F060614FF48410FFF730FD6E
:1016D0000B494FF48410FFF72BFD3001390109B29B
:1016E00000B2FFF731FF2001290109B200B2FFF774
:1016F0002BFF4FF004514FF48410FFF719FDF8BD94
:101700000900001FF8B507460E4615461846FFF7B4
:10171000F3FEBDF81810C1F30B0141F060614FF406
:101720008410FFF705FD0E494FF48410FFF700FD0C
:1017300000240BE037F91400000136F914100901F8
:1017400009B200B2FFF700FF0134A4B2AC42F1D3FA
:101750004FF004514FF48410FFF7EAFCF8BD00BFCE
:101760000400001FF8B506460F461546413B112BF5
:101770000AD8DFE803F00D0F090909090909090969
:10178000090B090909090911002406E0062404E0EF
:10179000072402E0082400E005240698FFF7ACFEC9
:1017A00044F0F8514FF48410FFF7C2FC00240BE022
:1017B00036F91400000137F91410090109B200B21A
:1017C000FFF7C2FE0134A4B2AC42F1D34FF0045192
:1017D0004FF48410FFF7ACFCF8BD000070B505466F
:1017E0000E4614461846FFF787FE0D494FF4841045
:1017F000FFF79EFC1F2C03D80F2C02D8102400E00A
:101800001F249DF81030224631462846FFF7ACFED3
:101810004FF004514FF48410FFF78AFC70BD00BFF5
:101820000100001F70B506460D4614461846FFF726
:1018300063FE6FF0F3014FF48410FFF779FCB1B24F
:101840004FF48410FFF750FCA9B24FF48410FFF757
:101850004BFC1F2C03D80F2C02D8102400E01F24AF
:1018600021464FF48410FFF73FFCBDF810104FF4F1
:101870008410FFF739FC0598FFF79EFE70BDF8B5A0
:1018800007460E4614461D460798FFF735FE6FF0D3
:10189000D1014FF48410FFF74BFCB9B24FF4841020
:1018A000FFF722FCB1B24FF48410FFF71DFC1F2C90
:1018B00003D80F2C02D8102400E01F2421464FF437
:1018C0008410FFF711FC29464FF48410FFF70CFC3D
:1018D00006994FF48410FFF72BFCF8BDF8B50746C6
:1018E0000E4615461C466FF0F4014FF48410FFF7C6
:1018F0001FFCB9B24FF48410FFF7F6FBB1B24FF4FE
:101900008410FFF7F1FB2846FFF7F6FDA1B24FF474
:101910008410FFF7E9FBBDF818104FF48410FFF7AF
:10192000E3FB0798FFF7E8FDF8BD000008B5064B9C
:1019300003EA402040F0D850C1F3080101434FF4BE
:101940008410FFF7F5FB08BD00FE030008B5064B49
:1019500003EA802040F0E050C1F3090101434FF455
:101960008410FFF7E5FB08BD00FC0F002DE9F041F6
:1019700080460F4616461D469DF818406FF0D3016D
:101980004FF48410FFF7D4FB1FFA88F14FF4841052
:10199000FFF7AAFBB9B24FF48410FFF7A5FB31465D
:1019A0004FF48410FFF7A0FB29464FF48410FFF793
:1019B0009BFB21464FF48410FFF7BAFB44F04071C3
:1019C0004FF48410FFF7B4FBBDE8F08108B500F0D8
:1019D000010141F0A0514FF48410FFF7A9FB08BDAD
:1019E0002DE9F04383B080460F46164699469DF890
:1019F0002C409DF83C5035BB0A98FFF796FD0E9899
:101A0000FFF77AFD6FF0F2014FF48410FFF790FBBF
:101A10001FFA88F14FF48410FFF766FBB9B24FF458
:101A20008410FFF761FB31464FF48410FFF75CFB35
:101A300049464FF48410FFF757FB1F2C0ED80F2C8C
:101A40000DD810240BE00120FFF7C0FF00954B4696
:101A5000324639464046FFF789FFCDE71F2421462D
:101A60004FF48410FFF740FBBDF830104FF48410A2
:101A7000FFF73AFB0D98FFF79FFD0020FFF7A6FF49
:101A800003B0BDE8F0832DE9F04182B005460C4675
:101A9000174698469DF83860002E3ED14046FFF725
:101AA00035FD0D98FFF728FD6FF0EB014FF4841022
:101AB000FFF73EFBA9B24FF48410FFF715FBA1B26C
:101AC0004FF48410FFF710FB39464FF48410FFF7F2
:101AD0000BFBBDF820104FF48410FFF705FBBDF899
:101AE00024104FF48410FFF7FFFABDF828104FF4CC
:101AF0008410FFF7F9FABDF82C104FF48410FFF7AB
:101B0000F3FABDF830104FF48410FFF7EDFA00201F
:101B1000FFF75CFF02B0BDE8F0810120FFF756FF40
:101B2000009601231A4621462846FFF71FFFB5E716
:101B30002DE9F04383B080460F46164699469DF83E
:101B40002C409DF83C5035BB0A98FFF7EEFC0E98F0
:101B5000FFF7D2FC6FF0F1014FF48410FFF7E8FAC1
:101B60001FFA88F14FF48410FFF7BEFAB9B24FF4B0
:101B70008410FFF7B9FA31464FF48410FFF7B4FA36
:101B800049464FF48410FFF7AFFA1F2C0ED80F2CE4
:101B90000DD810240BE00120FFF718FF00954B46ED
:101BA000324639464046FFF7E1FECDE71F24214685
:101BB0004FF48410FFF798FABDF830104FF48410FA
:101BC000FFF792FA0D98FFF7F7FC0020FFF7FEFEF3
:101BD00003B0BDE8F0832DE9F04182B007460E4620
:101BE000154698469DF83840002C3DD10898FFF7DF
:101BF0009CFC0998FFF78AFC6FF0EE014FF484100B
:101C0000FFF796FAB9B24FF48410FFF76DFAB1B24C
:101C10004FF48410FFF768FA29464FF48410FFF759
:101C200063FA41464FF48410FFF75EFABDF82810BE
:101C30004FF48410FFF758FABDF82C104FF48410BD
:101C4000FFF752FABDF830104FF48410FFF74CFA4A
:101C5000BDF834104FF48410FFF746FA0020FFF768
:101C6000B5FE02B0BDE8F0810120FFF7AFFE0094A1
:101C700043462A4631463846FFF778FEB6E72DE957
:101C8000F04182B007460E4690461C469DF83850FB
:101C90001DBB0B98FFF749FC0C98FFF737FC0D981C
:101CA000FFF72AFC6FF0ED014FF48410FFF740FAC4
:101CB000B9B24FF48410FFF717FAB1B24FF48410A1
:101CC000FFF712FA41464FF48410FFF70DFA1F2C6C
:101CD0000ED80F2C0DD810240BE00120FFF776FE54
:101CE00000952346424631463846FFF73FFED0E78F
:101CF0001F2421464FF48410FFF7F6F9BDF8201099
:101D00004FF48410FFF7F0F9BDF824104FF484105D
:101D1000FFF7EAF90A98FFF74FFC0020FFF756FE9D
:101D200002B0BDE8F0812DE9F04182B007460E46D1
:101D3000154698469DF83840002C3FD10C98FFF787
:101D4000F4FB0B98FFF7D8FB0D98FFF7DFFB6FF064
:101D5000EF014FF48410FFF7EBF9B9B24FF48410A0
:101D6000FFF7C2F9B1B24FF48410FFF7BDF929466D
:101D70004FF48410FFF7B8F941464FF48410FFF791
:101D8000B3F9BDF820104FF48410FFF7ADF9BDF89A
:101D900024104FF48410FFF7A7F9BDF828104FF472
:101DA0008410FFF7A1F900214FF48410FFF79CF98C
:101DB0000020FFF70BFE02B0BDE8F0810120FFF725
:101DC00005FE009443462A4631463846FFF7CEFDCD
:101DD000B4E72DE9F04182B007460E461546984615
:101DE0009DF83440002C3CD10B98FFF785FB0C98F4
:101DF000FFF78CFB6FF0F0014FF48410FFF798F9B8
:101E0000B9B24FF48410FFF76FF9B1B24FF48410F8
:101E1000FFF76AF929464FF48410FFF765F9414648
:101E20004FF48410FFF760F9BDF820104FF48410D0
:101E3000FFF75AF9BDF824104FF48410FFF754F956
:101E4000BDF828104FF48410FFF74EF900214FF42D
:101E50008410FFF749F90020FFF7B8FD02B0BDE894
:101E6000F0810120FFF7B2FD009443462A46314637
:101E70003846FFF77BFDB7E72DE9F04182B0054614
:101E80000C4690461F469DF82C6086BB0A98FFF7CB
:101E900033FB0998FFF749FB6FF0D2014FF4841030
:101EA000FFF746F9A9B24FF48410FFF71DF9A1B26C
:101EB0004FF48410FFF718F941464FF48410FFF7F0
:101EC00013F939464FF48410FFF70EF9BDF82010CE
:101ED0004FF48410FFF708F900214FF48410FFF746
:101EE00003F90020FFF772FD02B0BDE8F081012088
:101EF000FFF76CFD009601231A4621462846FFF79E
:101F000035FDC3E72DE9F04182B005460C46904609
:101F10001F469DF83860002E3DD10D98FFF7ECFA72
:101F20000C98FFF7F3FA6FF0EC014FF48410FFF711
:101F3000FFF8A9B24FF48410FFF7D6F8A1B24FF41E
:101F40008410FFF7D1F841464FF48410FFF7CCF826
:101F500039464FF48410FFF7C7F89DF820104FF46E
:101F60008410FFF7C1F89DF824104FF48410FFF798
:101F7000BBF8BDF828104FF48410FFF7B5F8BDF892
:101F80002C104FF48410FFF7AFF80020FFF71EFD70
:101F900002B0BDE8F0810120FFF718FD0096012393
:101FA0001A4621462846FFF7E1FCB6E708B5024885
:101FB000FFF710F9C0B208BD0090100008B5024844
:101FC000FFF708F9000C08BD0090100008B56FF08D
:101FD000EA014FF48410FFF7ABF808BDF8B50746E7
:101FE0000E4614461D466FF0E9014FF48410FFF7CA
:101FF0009FF8B9B24FF48410FFF776F8B1B24FF4FE
:102000008410FFF771F8032C00D9002421464FF407
:102010008410FFF769F829464FF48410FFF764F83D
:10202000F8BD08B56FF0CE014FF48410FFF780F8CB
:1020300008BD000008B5FFF725FA012004F096FB63
:102040000548FFF7B1F80028FAD1012004F08EFB13
:10205000FFF704FA08BD00BFE824100008B56FF0D0
:10206000D0014FF48410FFF763F808BDF8B50746B8
:102070000E4615461C466FF0CF014FF48410FFF753
:1020800057F8B9B24FF48410FFF72EF8B1B24FF4FD
:102090008410FFF729F829464FF48410FFF724F83D
:1020A00021464FF48410FFF71FF806994FF484106F
:1020B000FFF73EF8BDF81C104FF48410FFF714F83A
:1020C00000214FF48410FFF70FF8F8BD08B56FF04A
:1020D000E8014FF48410FFF72BF808BD08B500F0B5
:1020E000010141F014514FF48410FFF721F808BDAD
:1020F00008B503494FF48410FFF71AF808BD00BF74
:102100000100001F08B50B2800D90B20C00400F403
:10211000780040F0E060064B03EA41210843C2F337
:10212000080101434FF48410FFF702F808BD00BF17
:1021300000FE070008B5000500F4801040F00060C4
:10214000C90401F400210843910401F480210143F2
:10215000064800EA43230B43BDF90810C1F3080108
:1021600019434FF48410FEF7E3FF08BD00FE03009F
:1021700008B5C0F3130141F080714FF48410FEF7ED
:10218000D7FF08BD08B56FF0D9014FF48410FEF7F2
:10219000CFFF08BD08B56FF0D5014FF48410FEF7EE
:1021A000C7FF08BD38B505460C466FF0D7014FF4A0
:1021B0008410FEF7BDFF29044FF48410FEF7B8FF2A
:1021C00021044FF48410FEF7B3FF38BD38B505463F
:1021D0000C466FF0D8014FF48410FEF7A9FF2904D4
:1021E0004FF48410FEF7A4FF21044FF48410FEF78F
:1021F0009FFF38BD10B504466FF0D6014FF4841030
:10220000FEF796FF2004064981FB00310144C01708
:10221000C0EB21214FF48410FEF78AFF10BD00BFF0
:10222000B7600BB638B505460C466FF0DB014FF4CE
:102230008410FEF77DFF29464FF48410FEF778FFE7
:1022400021464FF48410FEF773FF38BD00BF70477E
:1022500000BF034A136843F040031360704700BF98
:102260000038004000BF7047074B9B6813F0020F17
:10227000FAD0054BD860044B9B6813F0010FFAD0DD
:10228000014BD868C0B270470038004008B5FFF76E
:10229000EBFF08BD08B50020FFF7E6FF08BD000012
:1022A0002DE9F04FADF5825D83B0074602920393AE
:1022B000012206A801F00CFD142106A801F066FF1A
:1022C00005AB022204A906A801F01DFE9DF81130FD
:1022D0009DF8106046EA0326162106A801F056FF75
:1022E00005AB022204A906A801F00DFE9DF81130ED
:1022F0009DF810A04AEA032A18210DEB010001F015
:1023000045FF05AB042204A906A801F0FCFD9DF8D9
:1023100013309DF812804FEA084848EA03689DF898
:10232000113048EA03289DF8103048EA03082221BA
:1023300006A801F02BFF05AB042204A906A801F0B2
:10234000E2FD9DF811309DF8109049EA03292821FB
:1023500006A801F01BFF05AB042204A906A801F0A2
:10236000D2FD9DF813309DF81240240444EA036422
:102370009DF8113044EA03249DF810301C43E51702
:10238000012E15D0072E1AD0112E1AD003264FF485
:1023900080220023AB4208BFA24200D2144601941F
:1023A0002C2106A801F0F2FE3B4627469B4622E080
:1023B000B9F1080F01D00326E9E70026E7E7012677
:1023C000E5E70226E3E73D461BE0264B185DFFF7F5
:1023D0005DFF0134A54208D9002EF6D1214B185DCE
:1023E00080F08000FFF752FFF3E71F4B4FF480525D
:1023F0009A61AB447F1BA7B1B7F5006FE3D94FF4E7
:10240000006505AB2A46174906A801F07CFD164B6E
:102410004FF080529A6180215846FEF72BFE00242F
:10242000D8E7029B1E80039BA3F800A00DF5835301
:1024300010331B68C3F800800DF5835314331B68F9
:10244000A3F800900DF5835318331B68019A1A60A6
:1024500006A801F081FE01200DF5825D03B0BDE804
:10246000F08F00BFAC130020000402402DE9F04FB4
:10247000ADF5825D81B0044600920193012204A86B
:1024800001F026FC0E2104A801F080FE03AB04221B
:1024900002A904A801F037FD9DF80B309DF80A80D1
:1024A0004FEA084848EA03689DF8093048EA0328DB
:1024B0009DF8083048EA030808F10E08122104A824
:1024C00001F064FE03AB042202A904A801F01BFD85
:1024D0009DF80B309DF80A703F0447EA03679DF8AA
:1024E000093047EA03279DF808301F43162104A846
:1024F00001F04CFE03AB042202A904A801F003FD85
:102500009DF80B309DF80A60360446EA03669DF894
:10251000093046EA03269DF808301E431C2104A812
:1025200001F034FE03AB042202A904A801F0EBFC85
:102530009DF809309DF8085045EA0325414604A856
:1025400001F024FEED085FFA85FABAF1020F15D00A
:102550000023009A1380019A13800DF583520832EC
:102560001268137004A801F0F7FDBAF1020F3CD015
:1025700000200DF5825D01B0BDE8F08FB3465546F1
:1025800007FB05F506F1FF3808FB05484FF0000989
:102590000EE0174B185DFFF779FE0134A542F8D81D
:1025A000144B4FF480529A61A8EB050809F1010918
:1025B000D9450FD203AB2A460D4904A801F0A3FC6C
:1025C0000C4B4FF080529A6180214046FEF752FD3D
:1025D0000024E3E7009B1F80019B1E800DF58353C1
:1025E00008331B6883F800A0BCE70120C1E700BFE7
:1025F000AC130020000402402DE9F043ADF5825DEC
:1026000081B0074690469946012204A801F060FB7C
:10261000002104A801F0BAFD03AB022201A904A81D
:1026200001F071FC022104A801F0B0FD03AB02220D
:1026300001A904A801F067FC042104A801F0A6FD8B
:1026400003AB022201A904A801F05DFC9DF804106F
:102650009DF8056046EA012600231C464FF6C0722D
:10266000934217D0B3F57F4F14D03119023104A82B
:1026700001F08CFD70B903AB04220DEB020104A83C
:1026800001F041FC9DF804209DF8053043EA022347
:102690000434E3E73119033104A801F077FD03ABFB
:1026A00004220DEB020104A801F02DFC9DF804208A
:1026B0009DF8053043EA0223A9F800309DF8062072
:1026C0009DF8073043EA0223A8F80030002104A84F
:1026D00001F05CFDFEF7C2FE02213846FFF7A2FDC5
:1026E000012618E01A48FEF75FFDFEF7B7FCFEF77B
:1026F000D3FEA842F6D3002409E00026F7E7154BE5
:10270000195D4FF48410FEF7CFFC0134A4B2AC4243
:10271000F5D3FEF7B7FE6EB103AB4FF400620D497F
:1027200004A801F0F0FB039DB5F5006FE5D34FF46D
:102730000065DCE7E8B2FEF731FFFEF779FE04A89A
:1027400001F00AFD01200DF5825D01B0BDE8F083C6
:10275000E8241000AC13002008B5044B03EB800202
:10276000526852680344187A904708BD2803002035
:1027700008B5084B1B5C53B9064B01221A5403EBF6
:102780008002526812681844007A904708BD002001
:10279000FCE700BF2803002038B5044C04EB80059B
:1027A0006D68AD680444207AA84738BD280300202E
:1027B00038B5044C04EB80056D68ED680444207A5C
:1027C000A84738BD2803002010B5044B03EB800454
:1027D000646824690344187AA04710BD28030020C8
:1027E0004278007840EA02207047C278837843EA52
:1027F0000222437843EA0223007840EA032070472C
:102800000170090A417070470170C1F307234370DA
:10281000C1F307438370090EC170704713462AB194
:102820000A78027001300131013BF9D17047017023
:102830000130013AFBD1704730B4451C0378087869
:102840001B1A013A04D04C1C28462146002BF4D018
:10285000184630BC704700E0013003780BB18B4262
:10286000FAD118467047000030B400252B4601E02D
:1028700001250133012B15D81A01174CA258002A43
:10288000F6D00468A242F4D1134A02EB0312546852
:1028900082689442EDD1104A02EB031294684269B7
:1028A0009442E6D1022B0AD0A1B90B4A02EB0313E2
:1028B0009B89B3F5807F07D0002030BC70472DB9CD
:1028C000022905D10020F8E71020F6E70020F4E700
:1028D0001220F2E71020F0E700010020002000E0C5
:1028E0000130012804D80301034AD358002BF7D143
:1028F000023818BF012070470001002070B4002387
:1029000000E00133012B13D81A01244CA4580268AB
:102910009442F6D1214A02EB031254688268944231
:10292000EFD11E4A02EB0312946842699442E8D147
:10293000022B29D021B1194A02EB0312928952BB12
:1029400021BB164A02EB03129189013189B2134A65
:1029500002EB03129181581C70BC70470133012BAC
:1029600004D81A010D4CA258002AF7D1022B10D01E
:1029700006680A4D1C012A192E518468546040696A
:10298000906000209081D5E70023E8E74FF4807144
:10299000DDE70020E0E70020DEE700BF00010020C7
:1029A0000138012815D80D4B03EB00139B89B3F5B3
:1029B000807F03D01BB1013B9BB200E00023074A9C
:1029C00002EB0012938133B903010020034AD05077
:1029D0007047022070470020704700BF00010020B0
:1029E000002303E05DF8044B70470133012B11D83D
:1029F0001A0109498A588242F7D110B41A010024F9
:102A00008C500133012BEDD81A0103498A588242B8
:102A1000F7D1F3E7704700BF000100200239C36916
:102A2000023B8B4204D94389006B01FB03007047D2
:102A30000020704710B40468C26A0432A389B1FB55
:102A4000F3F16389B1FBF3F1106830B1814202D335
:102A5000091A0832F8E7506808445DF8044B7047DB
:102A600070B506460D4601F11A00FFF7B9FE33783E
:102A7000032B00D070BD044605F11400FFF7B0FE33
:102A800044EA0040F6E770B506460C46154691B29A
:102A900004F11A00FFF7B4FE3378032B00D070BDA9
:102AA000290C04F11400FFF7ABFEF8E72DE9F84319
:102AB00080460F4691464B730F23CB7200240C7354
:102AC000214607F11A00FFF79BFE09F1FF3606EBDE
:102AD000460306EB8306254602E001340C2C11D890
:102AE0004FF6FF739D4202D038F8165001360C4B5A
:102AF000185D29463844FFF783FE002DEDD14FF6CF
:102B0000FF75EAE74FF6FF739D4202D038F81630A2
:102B10000BB949F0400987F80090BDE8F88300BF81
:102B20002872000870B582B0054616461C460B2276
:102B3000FFF774FE052C11D807221DE001320F2A81
:102B40000CD803F0010101EB44045B0814F4803F4E
:102B5000F4D084F4883484F02104EFE73388002B28
:102B6000EAD002360022EAE7531E02A8024402F825
:102B7000081C240909D01A4604F00F0303F13001A0
:102B80003929F1D903F13701EEE77E2102461A44D3
:102B900002F8081C00E001349C4209D22A5D202A78
:102BA000F9D105E02021621C2955072A08D81446CE
:102BB000072BF7D802AA1A4412F8081C0133F2E7CF
:102BC00002B070BD01460B220020C30143EA50034E
:102BD000087850FA83F3D8B20131013AF5D1704741
:102BE000016809B10A4603E04FF0FF3308E0013203
:102BF00013781F2B01D93A2BF9D13A2B02D000239D
:102C00001846704710B44C1C0B78303B092B08D881
:102C1000A24209D15BB90132026018465DF8044B4B
:102C200070474FF0FF33F8E74FF0FF33F5E74FF011
:102C3000FF33F2E738B50D4640B1044603682BB1C7
:102C40001A781AB1D9888288914203D000232B6068
:102C5000092038BD5878FFF77FFD10F0010FF5D13E
:102C600023682B600020F4E7F8B5C3780BB9002087
:102C7000F8BD0446456B00F1380701232A46394662
:102C80004078FFF795FDA8B90023E370A36AEB1A1B
:102C9000226A934210D2A678012E09D9236A1D44D4
:102CA00001232A4639466078FFF782FD013EF3E7AB
:102CB0000020DDE70120DBE70020D9E770B5436B9A
:102CC0008B4212D004460D46FFF7CEFF064668B988
:102CD00001232A4604F138016078FFF75DFD10B149
:102CE00001264FF0FF35656300E00026304670BDD9
:102CF00010B504460023C3704FF0FF334363FFF762
:102D0000DDFF18BB04F23620FFF76AFD4AF65523B3
:102D100098421DD194F83830E92B05D0A36B03F00D
:102D2000FF130F4A934215D104F16E00FFF75DFDCA
:102D300020F07F400B4B98420ED004F18A00FFF741
:102D400054FD094B984209D1002002E0042000E024
:102D5000032010BD0220FCE70020FAE70220F8E77C
:102D6000EB00900046415400464154332DE9F04FAA
:102D700087B00F46164600230B60FFF731FF051E94
:102D8000C0F26A81C94B03EB85031C6A002C00F07A
:102D900067813C6006F0FE06237873B16078FFF728
:102DA000DBFC10F0010F08D1002E00F05B8110F069
:102DB000040F40F0598100204FE100232370E8B256
:102DC0006070FFF7D5FC10F0010F40F04F811EB18D
:102DD00010F0040F40F04C8104F10C0202216078E5
:102DE000FFF7F2FC002840F04581A289A2F50073AC
:102DF0009BB2B3F5606F00F23F81531E1A4201D0BF
:102E000001202AE100212046FFF772FF022800F08E
:102E1000A0800025042800F03181012800F23081D3
:102E200004F14300FFF7DCFCA789B84240F02A8197
:102E300004F14E00FFF7D4FC804620B904F15C0099
:102E4000FFF7D3FC8046C4F8208094F84860A67051
:102E5000731EDBB2012B00F2178108FB06F694F813
:102E60004590A4F80A90B9F1000F00F00F8109F124
:102E7000FF3319EA030F40F00B8104F14900FFF71B
:102E8000AFFC824620814FEA571BB0FBFBF30BFBE4
:102E900013039BB2002B40F0FD8004F14B00FFF7C1
:102EA0009FFC019020B904F15800FFF79EFC0190AF
:102EB00004F14600FFF794FC0146002800F0EC8086
:102EC0008219BAFBFBFB5A44019B9342C0F0E68097
:102ED0009B1AB3FBF9F9B9F1000F00F0E1804FF64E
:102EE000F57399454DD94FF0030B40F6F5739945AD
:102EF00001D84FF0010B09F10209C4F81C9065627A
:102F00004B19A3622A442263BBF1030F3CD0BAF1F0
:102F1000000F00F0D1803344E362BBF1020F6BD1AC
:102F20004FEA490942E0002006AB03EB850343F872
:102F3000100C0135032D0ED804F138002B0103F5D8
:102F4000DF7318440379002BEDD00830FFF74DFCF8
:102F5000EAE70025EEE700260AE029462046FFF7CB
:102F6000C7FE01287FF656AF0136032E3FF652AF5B
:102F700006AB03EB860353F8105C002DEDD1032064
:102F8000F2E74FF0020BB0E704F16200FFF728FC14
:102F9000002840F08780BAF1000F40F0858004F1EE
:102FA0006400FFF722FCE0624FEA8909B94409F1A5
:102FB000FF33B3FBF7F7474500F280804FF0FF3354
:102FC000A361636180232371BBF1030F05D104F179
:102FD0006800FFF705FC012815D084F800B0334ADB
:102FE000938C01339BB29384E38028322261204684
:102FF000FFF7F6FC002030E009EB490309F0010976
:1030000009EB5309D2E7691C2046FFF757FE002859
:10301000E3D10023237104F23620FFF7E1FB4AF6E7
:1030200055239842D9D104F13800FFF7DEFB204B3D
:103030009842D2D104F50770FFF7D7FB1D4B984299
:10304000CBD104F50870FFF7D0FBA06104F509703F
:10305000FFF7CBFB6061C0E70B2007B0BDE8F08F46
:103060000C20FAE70020F8E70A20F6E70320F4E74F
:103070000A20F2E70120F0E70120EEE70120ECE76B
:103080000D20EAE70D20E8E70D20E6E70D20E4E754
:103090000D20E2E70D20E0E70D20DEE70D20DCE764
:1030A0000D20DAE70D20D8E70D20D6E7000100203B
:1030B00052526141727241610D20CEE70D20CCE782
:1030C0002DE9F047012940F29280C3698B4240F21A
:1030D000908017460D4604460378022B4DD0032BF3
:1030E00064D0012B01D0022684E001EB5108816AF3
:1030F0008389B8FBF3F31944FFF7E0FD0646002887
:1031000078D104F1380908F1010AA289B8FBF2F379
:1031100002FB138815F0010524D019F9083003F0DB
:103120000F033A0102F47F621343DBB209F808305F
:103130000123E370A16AA389BAFBF3F31944204683
:10314000FFF7BCFD0646002854D1A289BAFBF2F372
:1031500002FB13AA45B1C7F3071209F80A2001239D
:10316000E37047E0FBB2E1E719F90A2022F00F0211
:10317000C7F303273A43D2B2EFE7816A83895B083A
:10318000B5FBF3F31944FFF799FD064690BB04F134
:1031900038006D00A289B5FBF2F302FB1355B9B2FA
:1031A0002844FFF72DFB0123E37023E0816A838924
:1031B0009B08B5FBF3F31944FFF780FD0646C8B939
:1031C00027F0704704F13803A900A289B1FBF2F59A
:1031D00002FB15151D442846FFF707FB00F0704160
:1031E00039432846FFF710FB0123E37002E0022673
:1031F00000E002263046BDE8F087F8B506680129F0
:103200006AD9F3698B4269D90C463378022B35D0E1
:10321000032B49D0012B01D001205EE001EB5105C9
:10322000B16AB389B5FBF3F319443046FFF746FDA5
:10323000002855D16F1CB389B5FBF3F203FB12557F
:10324000354495F83850B16AB7FBF3F3194430466A
:10325000FFF734FD002846D1B289B7FBF2F302FB39
:1032600013773E4496F8380045EA002014F0010F29
:1032700001D0000931E0C0F30B002EE0B16AB38940
:103280005B08B4FBF3F319443046FFF717FD68BB46
:1032900006F138006100B289B1FBF2F302FB1311B1
:1032A0000844FFF79DFA18E0B16AB3899B08B4FBA4
:1032B000F3F319443046FFF701FDD0B906F13800A9
:1032C000A100B389B1FBF3F403FB14110844FFF729
:1032D0008CFA20F0704000E00120F8BD0120FCE7EE
:1032E0004FF0FF30F9E74FF0FF30F6E74FF0FF30D7
:1032F000F3E74FF0FF30F0E72DE9F0410768B1F553
:10330000001F43D206460D4611F01F0F41D17161D7
:1033100084681CB93B78022B00D9FC6ACCB93B8984
:10332000B3EB551F37D9FB6AF361B461F369002B26
:1033300039D0BA89B5FBF2F21344F36107F13803CF
:10334000B989B5FBF1F201FB12551D44356200202D
:103350001DE07B89B7F80C8008FB03F845450FD3C7
:1033600021463046FFF749FF0446B0F1FF3F14D035
:10337000012814D9FB69834213D9A5EB0805EDE7B1
:1033800021463846FFF74AFBF061CEE70220BDE850
:10339000F0810220FBE70220F9E70120F7E7022095
:1033A000F5E70220F3E70220F1E72DE9F0410746B7
:1033B0000668884631B975698DB1F369AB420FD89B
:1033C00001250DE0FFF719FF0346012847D9B0F1A9
:1033D000FF3F49D0F269824246D8454600E00125C8
:1033E0002C460CE021463846FFF707FF034670B134
:1033F000012839D0B0F1FF3F36D0AC4233D0013490
:10340000F369A342EED8012D2BD90224EAE74FF04D
:10341000FF3221463046FFF753FE034610B9B8F19C
:10342000000F0ED1A3B97461B269F369023B9A42ED
:1034300001D8013AB261337943F001033371234675
:1034400012E0224641463046FFF73AFE0346E9E7DE
:10345000012B01D0012307E04FF0FF3304E00123EB
:1034600002E0002300E000231846BDE8F081F8B533
:103470000E46056801292ED907461146EB69B3426D
:103480002CD952B14FF0FF322846FFF719FE84467F
:1034900018B125E02646A24222D931463846FFF728
:1034A000ACFE0446F0B101281FD0B0F1FF3F1FD0A1
:1034B000002231462846FFF703FE844680B9AB69F7
:1034C000EA69911E8B42E5D20133AB612B7943F05F
:1034D00001032B71DEE74FF0020C01E04FF0020C0C
:1034E0006046F8BD4FF0000CFAE74FF0020CF7E72A
:1034F0004FF0010CF4E72DE9F04106684569C36916
:10350000002B72D02035B5F5001F70D20F4604464F
:10351000B189B5FBF1F201FB12523AB90133C36133
:103520008169A1B93389B3EB551F0CD9656106F1E7
:103530003803B189B5FBF1F201FB12551D44256238
:103540000020BDE8F0810023C3610420F9E7B289BF
:10355000B5FBF2F27389013B1A42E7D1FFF74DFE4A
:103560008046012845D9B0F1FF3F44D0F36983423A
:1035700033D88FB1A1692046FFF717FF8046002896
:103580003BD001283BD0B0F1FF3F3AD03046FFF7A7
:103590006BFB28B10120D4E70023E3610420D0E7CE
:1035A000B289002106F13800FFF741F94146304663
:1035B000FFF734FA7063002773899F420AD2012310
:1035C000F3703046FFF750FBE8B90137736B0133F6
:1035D0007363F1E7736BDB1B7363C4F818804146B8
:1035E0003046FFF71BFAE061A0E70420A9E70420BA
:1035F000A7E70220A5E70120A3E70720A1E7022013
:103600009FE701209DE701209BE7F8B504460F46A0
:1036100006680021FFF770FE0346C0B9002508E0E8
:103620000135BD4213D001212046FFF764FF034658
:1036300068B9E1693046FFF741FB034638B9226AB1
:103640001278E52AECD0002AEAD00025EBE7042B1B
:1036500001D01846F8BD0723FBE7000070B504460B
:10366000FFF702FB054648B92378032B08D0002258
:1036700011466078FFF7A8F800B10125284670BD13
:103680002379012BF3D104F13806A28900213046B9
:10369000FFF7CDF84AF6552104F23620FFF7B0F8CF
:1036A0000E493046FFF7B0F80D4904F50770FFF7F3
:1036B000ABF8A16904F50870FFF7A6F8616904F595
:1036C0000970FFF7A1F8626A013262630123314693
:1036D0006078FFF76DF800232371C8E7525261410B
:1036E000727241612DE9F04F83B080468A46D1F86D
:1036F000009003681D69002410E0013619F80630B7
:103700002F2BFAD05C2BF8D04E44CAF800601F284B
:1037100021D8042722E025F814703446661C19F8D5
:1037200004001F28F0D92F28E8D05C28E6D0FE2C12
:1037300000F2DF80012100F0DBFE0746002800F0E8
:10374000DA807F28E7D801466D48FFF784F8002823
:10375000E1D0062084E0002700E0013C44B104F100
:103760000043013B35F81330202BF6D02E2BF4D03C
:10377000002325F81430002C00F0BF800B222021FC
:1037800008F12400FFF753F8002300E0013335F877
:103790001320202AFAD02E2AF8D01BB147F00307B5
:1037A00000E0013C6CB104F10042013A35F812200E
:1037B0002E2AF6D14FF0080B4FF0000ACDF804A0E6
:1037C0000AE0A2464FF0080B0022019204E04C45AB
:1037D0000BD047F003074B4603F1010935F813609E
:1037E000FEB1202EF5D02E2EF1D0DA4510D24C4568
:1037F0000ED07F2E44D8002E50D147F003075F260D
:1038000008EB0A0383F824604B460AF1010AE3E758
:10381000BBF10B0F27D04C4501D047F003074C45B7
:1038200024D298F82430E52B54D0BBF1080F55D0A2
:10383000019B03F00C020C2A03D003F00303032BBB
:1038400001D147F0020717F0020F06D1019B03F0E8
:103850000303012B47D0042A48D088F82F7000209A
:1038600003B0BDE8F08F47F00307DAE7019B9B0048
:10387000DBB2019323464FF00B0B4FF0080AABE786
:103880000021304600F034FE064620B1A0F180064B
:103890001C4B33441E7C47F00207ACE731461A4804
:1038A000FEF7D9FF0028A8D1A6F141039BB2192B3E
:1038B00004D8019B43F002030193A1E7A6F1610341
:1038C0009BB2192B9CD8019B43F001030193203E2E
:1038D000B6B295E7052388F82430A6E7019B9B0044
:1038E000DBB20193A4E747F01007B4E747F00807FD
:1038F000B3E70620B4E70620B2E70620B0E700BF32
:10390000C876000828720008D47600082DE9F04730
:1039100081460F4601F11A00FEF762FFB8BB3D7801
:1039200005F03F05013D05EB450305EB83054FF031
:103930000108002404E04FF6FF7398422ED10134B1
:103940000C2C18D8194B185D3844FEF749FF064671
:10395000B8F1000FEFD0FE2D1CD800F0E5FD804639
:1039600005F1010A39F8150000F0DEFD804513D19C
:10397000B0465546E3E73B7813F0400F10D0B8F15E
:10398000000F0FD039F8153073B9012000E0002086
:10399000BDE8F0870020FBE70020F9E70020F7E70B
:1039A0000120F5E70120F3E70020F1E72872000885
:1039B0002DE9F8430446D0F800800021FFF79CFC75
:1039C0000646002864D14FF0FF3323634FF0FF0910
:1039D0004F460AE04FF0FF332363FF2700212046C4
:1039E000FFF789FD0646002852D1E1694046FFF7FE
:1039F00065F9064600284BD1256A2B78002B46D066
:103A0000E97A01F03F02A271E52BE3D011F0080F33
:103A100001D00F2ADED10F2A16D027B92846FFF78A
:103A2000D1F8484534D094F82F3013F0010F06D167
:103A30000B2204F124012846FEF7FEFE40B34FF0AE
:103A4000FF332363FF27C9E794F82F2012F0400FBC
:103A5000C4D113F0400F06D095F80D9003F0BF03CA
:103A6000626922631F46BB4201D0FF27B6E76B7B2A
:103A70004B4501D0FF27B1E72946D8F81000FFF7E2
:103A800045FF10B1013FFFB2A8E7FF27A6E70426D4
:103A90003046BDE8F88330B583B00446019105682F
:103AA00001E001330193019B1A782F2AF9D05C2A97
:103AB000F7D00022A2601B781F2B21D901A9204634
:103AC000FFF710FE034618BB2046FFF771FF94F87E
:103AD0002F200346F8B912F0040F19D1A37913F07F
:103AE000100F1FD005F138016069AA89B0FBF2F30D
:103AF00002FB130319442846FEF7B2FFA060DDE77E
:103B0000802384F82F3011462046FFF7F5FB03464B
:103B1000184603B030BD0428FAD112F0040FF7D1D3
:103B20000523F5E70523F3E72DE9F04385B00668A3
:103B300090F82F3013F0A00F40F08D80002400E0AB
:103B40000134336933F81430002BF9D1054600F104
:103B500024070C22394601A8FEF760FE9DF80F30BD
:103B600013F0010F1FD0402385F82F304FF00108CC
:103B7000B8F1630F0DD84346326901A93846FEF704
:103B8000D1FF2846FFF714FF814610B908F101085C
:103B9000EEE7B8F1640F64D0B9F1040F5DD19DF880
:103BA0000F3085F82F309DF80F3013F0020F2AD018
:103BB0000C342D4BA3FB0434A408013421462846C1
:103BC000FFF723FD814608B9013C1ED1B9F1000F72
:103BD00043D1E9693046FFF771F8814600283CD1AE
:103BE00020220021286AFEF722FE0B223946286A8D
:103BF000FEF714FE95F82F302A6A03F018031373AA
:103C00000123F37029E00124D8E76969A1EB44118D
:103C10002846FFF771FB81460028D7D13846FEF7CA
:103C2000D1FF8046E9693046FFF748F88146002811
:103C3000CCD14346E2B2296A3069FEF737FF01234F
:103C4000F37000212846FFF756FC81460028BDD1BD
:103C5000013CE7D1BAE74FF00609484605B0BDE898
:103C6000F0834FF00709F8E74FECC44E70B584B00D
:103C700001900091164604A840F8041DFEF7B0FF1D
:103C8000041E1EDB114B03EB84031D6A25B128467D
:103C9000FEF7A6FE00232B70019B0BB100221A70C9
:103CA000019B0A4800EB8400036263B1012E02D03D
:103CB000002004B070BD002201A96846FFF756F845
:103CC000F7E70B20F5E70020F3E700BF0001002035
:103CD0002DE9F04393B00191002800F012810546D0
:103CE000164602F03F073A4603A901A8FFF73EF83F
:103CF000044630B10CB100232B60204613B0BDE860
:103D0000F083039B0493019904A8FFF7C4FE0446C3
:103D100060B99DF93F30002B51DB37F0010314BF30
:103D20000121002104A8FEF79FFD044616F01C0F98
:103D30005BD0002C4FD0042C43D047F00807002C58
:103D400062D117F0080F5FD000F0CAFF06460146A7
:103D50000C980E30FEF758FD31460C981630FEF7E1
:103D600053FD0C9B2022DA72039EDDF83080414621
:103D70003046FEF775FE8146002241463046FEF78A
:103D800082FE00210C981C30FEF73EFD039B0122B1
:103D9000DA70B9F1000F37D0039B5E6B0022494601
:103DA00004A8FFF764FB044670BB31460398FEF796
:103DB00085FF044609F1FF33039A536124E006248A
:103DC000B4E7FEF78BFD08B91224B6E704A8FFF7A5
:103DD000ABFE0446B1E79DF8163013F0110F12D177
:103DE00016F0040FABD008240EE06CB99DF8163025
:103DF00013F0100F4ED116F0020F05D013F0010F83
:103E000002D0072416E00724A4B917F0080F01D048
:103E100047F04007039B5B6B6B620C9BAB6237F018
:103E2000010314BF0121002104A8FEF767FD2861EA
:103E3000002864D0002C7FF45DAF039EDDF8308055
:103E400041463046FEF70CFEA86008F11C00FEF764
:103E5000CCFCE8600021E9622E60F388AB802F750E
:103E600069752962A96105F130084FF48052404616
:103E7000FEF7DDFC17F0200F3FF43CAFEE68002E9C
:103E80003FF438AFAE61039B5A899F8907FB02F765
:103E9000A96805E00424CDE7B1F1FF3F0BD0F61B84
:103EA0005CB9BE4209D92846FFF7A7F901460128A7
:103EB000F2D80224F0E70124F1E7E961002C7FF455
:103EC00019AF039FB7F80C90B6FBF9F309FB136326
:103ED000002B3FF40FAF3846FEF7A0FD08B90224CF
:103EE00009E7B6FBF9F202442A62012341467878D9
:103EF000FEF752FC00283FF4FDAE0124FBE602244D
:103F0000F8E60924F9E62DE9F04F85B00446894624
:103F1000154698460023C8F80030019003A9FEF723
:103F200089FE0746002840F0AE80677D002F40F0F4
:103F3000AA80237D13F0010F00F0BC80E668A3691E
:103F4000F61AAE4260D32E465EE0E36A1BB120460D
:103F5000FEF770FD6CE0E1690198FFF74EF967E04C
:103F6000022767758FE0012767758CE00227677568
:103F700089E094F91430002B04DB039B9B890AFB36
:103F800003FA36E0206A009BC01A5045F5D2039B25
:103F90009B891A4604F1300103FB0090FEF73EFCBA
:103FA000EBE7226A009B9A420DD094F91430002B63
:103FB0006DDB0123009A04F1300103984078FEF78D
:103FC000EBFB002873D1009B2362039BB3F80CA08A
:103FD000A169B1FBFAF30AFB1313AAEB030A5645D6
:103FE00000D2B24604F13001524619444846FEF769
:103FF00015FCD144A3695344A361D8F8003053445D
:10400000C8F80030A6EB0A06002E3CD0A169039A3E
:104010009589B1FBF5F305FB1313002BD5D1B1FB4B
:10402000F5F55389013B1D4008D100298DD1A068C9
:10403000012895D9B0F1FF3F95D0E061DDF80CB0D3
:10404000E1695846FEF7EAFC00288FD02B18009350
:10405000BBF80CA0B6FBFAFABAF1000FA1D005EB41
:104060000A03BBF80A20934201D9A2EB050A534682
:10407000009A49469BF80100FEF78EFB00283FF4AA
:1040800078AF01276775384605B0BDE8F08F01238A
:1040900004F130019BF80100FEF78AFB20B9237D73
:1040A00003F07F03237584E701276775EBE701279A
:1040B0006775E8E70727E6E770B582B0044601A90F
:1040C000FEF7B8FD034678B9227D12F0400F0BD001
:1040D00012F0800F0BD100F003FE0646616A0198D2
:1040E000FEF7ECFD034680B1184602B070BD012317
:1040F000226A04F1300101984078FEF759FB48BB71
:10410000237D03F07F032375E5E7A56AEB7A43F08F
:104110002003EB72A26829462068FEF7B4FCE16830
:1041200005F11C00FEF770FB314605F11600FEF7A5
:104130006BFB002105F11200FEF762FB019B0122DF
:10414000DA700198FFF78AFA0346227D22F04002D6
:104150002275C9E70123C7E710B582B00446FFF70F
:10416000ABFF034610B1184602B010BD01A92046AE
:10417000FEF760FD03460028F5D12069FEF710FC2C
:1041800003460028EFD100222260ECE72DE9F04F32
:1041900085B004460F46064603A9FEF74BFD0546CB
:1041A00000B9657D6DB9E36A002B00F09280B7F12C
:1041B000FF3F0AD0E668BE4200D33E46A661002E0D
:1041C00043D1284605B0BDE8F08F1A1D0192D3F8FF
:1041D00000B0D4F808A0BAF1000F2AD04FF00209BD
:1041E00009F1020957464FF0000808F10108394665
:1041F0003046FFF702F8012815D9B0F1FF3F15D07E
:104200007B1C07468342F0D0CB4506D3019A134668
:1042100043F8088BC2F804A00193039BDB69834237
:1042200009D98246DCE702256575CAE7012565756F
:10423000C7E74FF00209E36AC3F80090D94500F2DE
:1042400007810023019A1360BBE7771E3946204699
:10425000FEF7F0FB0146E061DDF80C804046FEF71A
:10426000DDFB08B3B8F80C20B7FBF2F7B8F80A305A
:10427000013B1F400744B6FBF2F302FB1366002E1E
:104280009FD0226ABA429CD094F91430002B0EDBE6
:1042900001233A4604F1300103984078FEF77CFA96
:1042A000A8B1012565758CE70225657589E70123AD
:1042B00004F1300198F80100FEF77AFA20B9237D65
:1042C00003F07F032375E3E70125657579E727622E
:1042D00077E7E368BB4204D2227D12F0020F00D1DF
:1042E0001F46A3690022A261002F74D0039A51894E
:1042F000B2F80C9009FB01F97BB17A1EB2FBF9F21E
:10430000013BB3FBF9F18A4207D3C9F10002134024
:10431000A361FF1AD4F81C8006E0D4F80880B8F135
:10432000000F05D0C4F81C80B8F1000F23D154E071
:1043300000212046FFF739F88046012804D0B0F16B
:10434000FF3F04D0A060EDE70225657539E7012540
:10435000657536E741463046FEF74FFF8046B8F1B7
:10436000FF3F2FD0B8F1010F2FD9039BDB694345E5
:104370002BD9C4F81C804F4510D9A7EB0907A369B6
:104380004B44A361237D13F0020FE3D04146304636
:10439000FFF70BF880460028E1D10027A3693B44D2
:1043A000A36103988689B7FBF6F306FB1373002B12
:1043B00039D04146FEF732FB804648B1B7FBF6F7ED
:1043C000B8440AE001256575FBE602256575F8E647
:1043D00002256575F5E64FF00008A369E26893428F
:1043E00004D9E360227D42F040022275039881895E
:1043F000B3FBF1F201FB1233002B3FF4E2AE226A71
:1044000042453FF4DEAE94F91430002B0EDB01235D
:10441000424604F1300103984078FEF7BDF9A0B997
:10442000C4F82080CDE64FF00008D6E7012304F160
:1044300030014078FEF7BCF920B9237D03F07F03FB
:104440002375E4E701256575BBE601256575B8E6CA
:104450001125B6E6104B5B7ADBB930B40E4B5D7AB2
:10446000EDB200245C555D7A03EB85056860587AEF
:10447000184402725A7AD2B2501CC0B2587230320A
:104480000A703A234B702F238B70CC70204630BCBF
:1044900070470120704700BF2803002008B50022A4
:1044A000FFF7D8FF08BD00000D4B5B7A9BB1037886
:1044B000303BDBB20A4A02EB830252686AB1084A17
:1044C00002EB83010020486013441872537A013BC9
:1044D000DBB253727047012070470120704700BF64
:1044E0002803002008B50021FFF7DEFF08BD00000B
:1044F0007F2816D931B1FF2812D88038094B33F8FC
:104500001000704700237F2B07D8064A32F813208B
:10451000824202D001339BB2F5E78033D8B27047B4
:1045200000207047D8720008B0F5805F07D2234B97
:104530001A88002A40D090423ED3F0B406E0204BC7
:10454000F6E72B461A88CAB1904217D31D1D5B8827
:10455000190ADBB29C18A04204DB0029F1D105EB5B
:104560004303EFE7082909D8DFE801F0050A101333
:1045700016191C1F2200861A35F81600F0BC704769
:10458000821A02F00103C01A80B2F7E7103880B235
:10459000F4E7203880B2F1E7303880B2EEE71A381D
:1045A00080B2EBE7083080B2E8E7503880B2E5E748
:1045B000A0F5E35080B2E1E7704700BF94740008B3
:1045C000D8730008024A136843F040031360704731
:1045D00000300140024B4FF480129A61704700BFD7
:1045E00000000240014B10229A6170470000024017
:1045F000074B9B6813F0020FFAD0054BD860044BB1
:104600009B6813F0010FFAD0014BD868C0B2704715
:104610000030014070B505460E46002405E015F84F
:10462000010BFFF7E5FF0134A4B2B442F7D370BD2C
:1046300070B505460E46002406E0FF20FFF7D8FFC0
:1046400005F8010B0134A4B2B442F6D370BD0000EA
:1046500008B5074B4FF4FA721A80FF20FFF7C8FF26
:10466000FF2803D0024B1B88002BF6D108BD00BFEA
:10467000AC1B002010B582B0FFF7B4FF002403E0AC
:10468000FF20FFF7B5FF0134092CF9DDFFF7A2FF8A
:1046900040238DF8003000238DF801308DF8023072
:1046A0008DF803308DF8043095238DF80530062100
:1046B0006846FFF7AFFF41F6FF74FF20FFF798FF52
:1046C000012802D00CB1013CF7E7FFF78BFFFF2078
:1046D000FFF78EFF024B01221A7002B010BD00BF1F
:1046E00034030020014B00221A707047340300206D
:1046F000014B1878704700BF3403002038B50446DA
:104700000D460E4BC8221A80FF20FFF771FFFF28CD
:1047100003D10A4B1B88002BF6D1FE2801D00020C4
:1047200038BD29462046FFF783FFFF20FFF760FFD3
:10473000FF20FFF75DFF0120F2E700BFAE1B002066
:1047400038B505460C46FFF783FFFF2801D000204F
:1047500038BD2046FFF74CFFFD2C06D1002505F0A3
:104760001F05052D21D00020F2E74FF400712846E7
:10477000FFF750FFFF20FFF73BFFFF20FFF738FF59
:1047800000242546402C0AD8FF20FFF731FF0546BC
:1047900000F01F03052B02D00134E4B2F2E7FF2042
:1047A000FFF726FF0028FAD0D9E70120D0E738B577
:1047B00005460C46FFF74CFFFF2801D0FF2038BD0F
:1047C0002846FFF715FF200EFFF712FFC4F307403E
:1047D000FFF70EFFC4F30720FFF70AFFE0B2FFF771
:1047E00007FF402D14D0482D10D00120FFF700FF07
:1047F0004C2D0FD00A24FF20FFF7FAFE10F0800F97
:10480000DDD0631E13F0FF04F5D1D8E78720EDE774
:104810009520EBE7FF20FFF7EBFEEBE708B1012067
:10482000704710B582B0FFF7CDFE634B1B7813F0D5
:10483000020F04D0604B1878C0B202B010BD5F4ABE
:10484000136823F0380343F030031360FFF712FFBF
:10485000FFF7C0FE00214020FFF7A9FF012818D074
:104860000024574B5C70FFF7BDFEFF20FFF7C0FE32
:10487000002C00F09D80514A136823F03803136028
:104880004D4A137803F0FE0313704B4B1878C0B2F7
:10489000D3E74C4B4FF47A721A804FF4D57148200D
:1048A000FFF785FF012848D1002408E0FF20FFF72B
:1048B0009FFE02AB234403F8040C0134E4B2032C42
:1048C000F4D99DF80630012B01D00024C9E79DF8EA
:1048D0000730AA2B04D00024C3E73A4B1B8863B1EE
:1048E00000217720FFF763FF0128F6D84FF08041C1
:1048F0006920FFF75CFF0028EFD1324B1B880BB912
:104900000024AEE700217A20FFF751FF98B1002480
:10491000A7E7FF20FFF76CFE02AB234403F8040C6B
:104920000134E4B2032CF4D99DF8043013F0400FA5
:104930003CD00C2495E70024F4E700217720FFF712
:1049400036FF012801D9012412E000216920FFF778
:104950002EFF012801D901240AE0022408E00021E9
:104960007720FFF724FF01280FD9164B1B883BB196
:10497000022CF4D000214120FFF719FF0028F4D1C8
:10498000104B1B8843B900246BE700216920FFF717
:104990000EFF0028E9D1F3E74FF400715020FFF734
:1049A00006FF00283FF45DAF00245AE7042458E7CF
:1049B000FFF798FE69E700BF0800002000300140C3
:1049C00034030020AE1B002018B9034B1878C0B286
:1049D00070470120704700BF0800002000283FD129
:1049E00070B50D4616461C46002B3BD01F4B1B785E
:1049F00013F0010F38D11E4B5B7813F0040F00D178
:104A00005602FFF7E7FD012C1BD031465220FFF77D
:104A1000CEFE68B94FF400712846FFF76FFE18B15B
:104A200005F50075013CF5D100214C20FFF7BFFED4
:104A3000FFF7D8FDFF20FFF7DBFD201C18BF01208A
:104A400070BD31465120FFF7B2FE0028F0D14FF47F
:104A500000712846FFF752FE0028E9D00024E7E75E
:104A6000042070470420EBE70320E9E7080000205A
:104A700034030020002853D170B50D4616461C465D
:104A8000002B4FD02A4B1B7813F0010F4CD1284B31
:104A90001B7813F0040F49D1264B5B7813F0040FF9
:104AA00000D15602FFF796FD012C20D0214B5B78F8
:104AB00013F0020F29D131465920FFF778FE68B96B
:104AC000FC212846FFF73CFE18B105F50075013CB6
:104AD000F6D1FD210020FFF733FEF8B1FFF782FD8C
:104AE000FF20FFF785FD201C18BF012070BD314657
:104AF0005820FFF75CFE0028F0D1FE212846FFF782
:104B00001FFE0028EAD00024E8E700217720FFF705
:104B10004EFE21465720FFF74AFECCE70124DDE791
:104B2000042070470420E1E70320DFE70220DDE7EF
:104B3000080000203403002070B584B0002840F045
:104B4000B8800C461546052913D05D4B1B7813F031
:104B5000010F40F0B280FFF73DFD0D2C00F29F8069
:104B6000DFE804F0661C5C9D9D9D9D9D9D9D9D6C58
:104B70007A881378012B08D01BB1022B09D00424AA
:104B800098E0FFF7AFFD002494E0FFF773FD0024E9
:104B900090E0FFF7ADFD687000248BE00021492014
:104BA000FFF705FE08B101243CE010216846FFF73D
:104BB000A5FD002875D09DF800309B09012B20D061
:104BC0009DF8052002F00F029DF80A3002EBD31287
:104BD0009DF809305B0003F006031A449DF8083085
:104BE0009DF807109B0903EB81039DF806108902CD
:104BF00001F440610B440133073A93402B600024D9
:104C000010E09DF809309DF8082003EB02239BB2C9
:104C100001339BB29B022B60002403E04FF400732E
:104C20002B800024FFF7DEFCFF20FFF7E1FC41E0D2
:104C3000FFF70EFDFF2836D00124F3E700214920BD
:104C4000FFF7B5FD08B10124ECE710212846FFF776
:104C500055FD50BB0124E5E700214A20FFF7A7FDE1
:104C600008B10124DEE710212846FFF747FDF0B91F
:104C70000124D7E700217A20FFF799FD68B10124CC
:104C8000D0E76E1CFF20FFF7B3FC28700134E4B2BC
:104C90003546032CF5D90024C4E70024F9E70424A1
:104CA000C0E70124BEE70024BCE70024BAE70024E3
:104CB000B8E70424204604B070BD0324FAE700BF1F
:104CC0000800002008B503490348FFF7E7FB034B42
:104CD000187008BDB01B002068000020B41B002025
:104CE000002070472DE9F0438BB0002401943E4B27
:104CF0001A6B42F004021A631A6B02F0040201926A
:104D0000019A02941A6B42F080021A631A6B02F045
:104D100080020292029A03941A6B42F001021A6313
:104D20001A6B02F001020392039A04941A6B42F088
:104D300002021A631B6B03F002030493049B2B4DC6
:104D400022464FF440512846FBF7F0FDDFF8A490CF
:104D5000224610214846FBF7E9FDDFF89C802246F9
:104D600041F20B014046FBF7E1FD4FF40053059380
:104D7000012606960794089405A92846FBF7F2FC3D
:104D800010230593069607940327089705A948461C
:104D9000FBF7E8FC41F20B0305930696079408978E
:104DA00005A94046FBF7DEFC4FF400730593104B5A
:104DB0000693079405A92846FBF7D4FC4FF48053CB
:104DC000059306960794089705A92846FBF7CAFCA1
:104DD000224621461720FBF759FC1720FBF78AFCD7
:104DE0000BB0BDE8F08300BF00380240000802406D
:104DF0000000211000000240000402400346432846
:104E000017D00020632B16D0442B16D0642B16D05D
:104E1000452B16D0462B16D0662B16D0472B16D016
:104E2000672B16D0412B16D0612B16D0422B16D0F3
:104E300070474820E6E74920E6E74A20E6E74B20AE
:104E4000E6E74C20E6E74D20E6E74E20E6E74F2078
:104E5000E6E75020E6E75120E6E75220E6E7532058
:104E6000E6E70000B0F5007F01D000BF7047024BBD
:104E700001221A70704700BF38030020FEE70000CF
:104E800008B50E480E4B03604FF482734360002355
:104E90008360C360036143614FF400728261C36148
:104EA0000362436283620A23C362FCF737F800B9E6
:104EB00008BD40F27E310348FFF7E0FFE84C0020D8
:104EC000003001401077000808B50E480E4B036013
:104ED0004FF48273436000238360C36003614361C6
:104EE0004FF400728261C3610362436283620A23EA
:104EF000C362FCF713F800B908BD40F296310348CD
:104F0000FFF7BCFF203C002000380040107700086D
:104F100000B595B0002101912C4B1A6C42F08052E3
:104F20001A641B6C03F080530193019B0291284B80
:104F30001A6842F480421A601B6803F480430293AB
:104F4000029B012308934FF48033099302230E93AD
:104F50004FF480020F9208221092A822119212930D
:104F60000423139308A8FBF7F5FC20BB0F2303933E
:104F700002230493002305934FF4A05306934FF4A8
:104F800080530793052103A8FBF716FFC0B9FBF771
:104F9000BFFF104BA3FB00308009FBF7B7FB0420D9
:104FA000FBF7CAFB002211464FF0FF30FBF76EFB08
:104FB00015B05DF804FB40F24E310748FFF75EFF85
:104FC0004FF457710448FFF759FF00BF0038024003
:104FD00000700040D34D6210107700082DE9F04FAB
:104FE00093B0FBF701FBFFF793FFFFF77BFEFFF7A3
:104FF00047FFFFF769FFFFF765FE314D4FF4805320
:10500000AB614FF40053AB612E4C0126A661022325
:10501000A3614FF47A7001F0A9FB4FF08053AB61AC
:105020004FF00053AB614FF48033A3614FF4003372
:10503000A361254C2046FFF755FA32460021084669
:10504000FEF714FEFCF7A8F93220FBF7F9FA214627
:105050001E48FFF723FA00221D491E48FEF706FEF0
:105060001D4B1870FCF7DDFFFCF7E4FFFCF7D8F9E7
:105070001A48FCF725FA0720FCF72CFAFCF7A6FFE4
:10508000FCF7D6F9164C174D2168284601F0C4FCF0
:10509000154E6169304601F0BFFC144C33462A4678
:1050A0001349204601F098FC124B0093124B134A0F
:1050B00021460020FDF7DAF9322001F057FBE1E14B
:1050C0000008024000040240B01B002068000020DD
:1050D000F078000864030020424D002020202000CA
:1050E0000C000020D04C0020B84C00203C030020D5
:1050F00020770008B44C0020CC4C0020484D002004
:10510000B84B5B7E892B05D08B2B03D08D2B01D028
:105110008C2B23D1FCF7A2F9FCF782F90020FCF7D5
:10512000CFF90720FCF7D6F9FCF7D0FFFCF780F9A0
:10513000AD4CAE4B2246AE49AE4801F04DFCA94BFA
:1051400019682046FBF744F8002840F0BD81AA4BBF
:105150000093AA4BAA4AA749FDF788F9A14D8123DC
:105160006B76FCF77BF9FCF75BF90020FCF7A8F9FC
:105170000720FCF7AFF90020FCF728FC0020FCF723
:10518000F7FF9D4B19789E4E338811FB03F19B4C22
:10519000B4F9002009B20720FCF7B4FFB6F90030DB
:1051A000B4F900200092002211461046FCF7C2FF1D
:1051B000FCF79EFF00231A4619461846FCF7D4F95F
:1051C0003220FCF791F9022306934FF48073059384
:1051D0001C2704976B8B0393002402946FF07F4B82
:1051E000CDF804B0874E0096C823142211464FF420
:1051F000E170FCF7F0FC032306934FF40073059372
:105200000497AB8B03930294CDF804B0009614235B
:105210004FF4C872F0211846FCF7DDFCAE8B6F8BA3
:1052200021462046FCF782FBE6214FF4DC70FCF7B8
:105230008DFBC820FCF758F9A6F1F6090FFA89F999
:10524000A7F1760A0FFA8AFA8223059304946E4B2B
:1052500003930294172501956C4B00933C23642221
:1052600051464846FCF7BCFBA6F16A080FFA88F8DD
:10527000832305930494664B039302940195654B35
:1052800000933C23642251464046FCF7A9FB22369A
:1052900036B28423059304945F4B039302940195E3
:1052A0005E4B00933C23642251463046FCF798FB4A
:1052B000A7F1260A0FFA8AFA85230593CDF810B0D4
:1052C000574B039302940195564B00933C23642261
:1052D00051464846FCF784FB862305930494524BC1
:1052E000039302940195514B00933C236422514651
:1052F0004046FCF775FB87230593CDF810B04C4B67
:105300000393029401954B4B00933C236422514636
:105310003046FCF765FB07F12A0A0FFA8AFA882360
:1053200005930494444B039302940195434B0093DB
:105330003C23642251464846FCF752FB89230593DF
:1053400004943F4B0393029401953E4B00933C23FE
:10535000642251464046FCF743FB8A23059304949C
:10536000394B039302940195384B00933C236422FC
:1053700051463046FCF734FB7A373FB28B23059316
:105380000494334B039302940195324B00933C23D6
:10539000642239464846FCF723FB8C23059304948A
:1053A0002D4B0393029401952C4B00933C236422D4
:1053B00039464046FCF714FB8D2305930494284B93
:1053C000039302940195274B00933C2364223946B2
:1053D0003046FCF705FBFF20FCF786F8FCF728F8C1
:1053E00042E000BF0C000020D04C0020B84C002050
:1053F000207700083C030020B44C0020CC4C002057
:10540000484D00202020200028770008B469FF00C4
:105410003477000832CD32003C7700084763FF0044
:105420004477000882004B004C77000800D7FF004B
:10543000547700083C14DC005C77000832CD9A00F9
:1054400060770008DDA0DD0064770008D4FF7F00EE
:10545000687700088CE6F00074770008D0E0400020
:105460007C770008EE82EE009B4B1B78002B41F00E
:105470003D80994A538B14339BB25383B3F57A7FA3
:1054800001F04881954B1B7E813B0C2BECD801A28F
:1054900052F823F001510008D754000817560008AD
:1054A0000D570008FB570008E7580008F15900089D
:1054B0006B5B0008355D0008F15F0008576100086C
:1054C000576300081F640008854B864A8649002000
:1054D000FDF792F842E6FBF7C1FFFBF7A1FF834F10
:1054E0003846FBF7EDFF0720FBF7F4FF0020FCF741
:1054F0006DFA7F4C08AD26460FCE0FC533682B6082
:105500000DAD14340FCC0FC523682B6000974123D9
:105510000A220DA908A8FCF725F9764B009342232F
:105520000A220DA908A8FCF71DF9502400940023B5
:105530000A220DA908A8FCF7E5F84FF47A736E4A21
:1055400088214FF49670FCF763F84FF4A073019331
:10555000FF250095C8234FF4C87232211E20FCF7A6
:1055600079F89620FBF7C0FF282301934FF47F437F
:105570000093C8231A4664210A20FCF797F84FF4D9
:10558000C8734FF47F02DC211846FCF741F8284627
:10559000FBF7AAFF01944FF6FF73009332234FF4F9
:1055A000C872FA211E20FCF755F8412400944FF0F0
:1055B000FF131922C8214FF49B70FCF70FF90094D8
:1055C0004FF0FF131F22C8214FF4A570FCF706F916
:1055D0004A4B01934FF480730093494B12220521EB
:1055E0000846FCF71FF9812305936FF07F4304936E
:1055F000444B0393002302931C2301934FF47F0336
:1056000000931E231A46052140F2BD10FCF7E8F96D
:10561000FBF70EFF28E7FBF721FFFBF701FF3348FD
:10562000FBF74EFF0720FBF755FF0020FCF7CEF9F4
:10563000002405942F4B04934FF47F4303934FF4BE
:1056400080670297254EF38B0193009414234FF447
:10565000DC72C8211846FCF7BCFB274B0193F38B87
:1056600000934FF480731F227821C820FCF707F9BC
:10567000012306936FF07F4505950495FF2303935F
:105680000297F38B0193009414234FF4DC723C21B6
:105690001846FCF748FB1C4B01934FF480730093B2
:1056A000174B122205210846FCF7BCF8812305930D
:1056B0000495144B039302941C2301934FF47F032E
:1056C00000931E231A46052140F2BD10FCF788F90D
:1056D000FBF7AEFEC8E600BF380300200C00002038
:1056E000CC4C0020484D00203C030020202020000E
:1056F000887600088080800000FFFF00887700081F
:105700000095FF00B4770008B8770008FBF7A6FE05
:10571000FBF786FEA64C2046FBF7D2FE0720FBF7E0
:10572000D9FE0020FCF752F904230393DFF8BC9262
:10573000CDF80890FF2301939E4E338B00930023F6
:1057400041226E215520FCF797FB00250695059414
:10575000994F04974FF480630393338B9B09029313
:105760000524019400942B4641226E21EB20FCF786
:10577000C9FB06956FF07F48CDF81480738B0493B6
:10578000B38B03938D4B1A8C02925B8C0193009523
:105790004FF47F0341226E2140F28110FCF773F930
:1057A000CDF80490338B9B0900934FF480731F2234
:1057B000D221C820FCF763F8814B01934FF480732A
:1057C00000933B46122221462046FCF72BF881230A
:1057D0000593CDF810807B4B039302951C23019316
:1057E0004FF47F0300931E231A46214640F2BD105A
:1057F000FCF7F6F8FBF71CFE36E6FBF72FFEFBF78F
:105800000FFE6B48FBF75CFE0720FBF763FE0020F2
:10581000FCF7DCF86C4B01934FF480730093664BFC
:10582000122205210846FBF7FDFF812305936FF047
:105830007F430493634B0393002302931C23019340
:105840004FF47F0300931E231A46052140F2BD103A
:10585000FCF7C6F8574BDB8BB3F5004F2CD905236B
:10586000069300230593544A0492514A0392574ADF
:1058700002924FF6FF72019200931C2332225A21AA
:105880001046FCF7FCF94FF47F454FF47F04962156
:105890001E20FCF74BF85A214FF4CD70FCF756F858
:1058A0000195962100914FF4DC7322461E20FCF7EF
:1058B00015F8FBF7BDFDD7E50523069300230593F7
:1058C0003D4A04923A4A0392414A0292019300935C
:1058D0001C2332225A211046FCF7D1F94FF47F05E0
:1058E0004FF47F44D3E7FBF7B9FDFBF799FD304850
:1058F000FBF7E6FD0720FBF7EDFD0020FCF766F85F
:105900003448FBF741FC80B2334C20804FF08608CE
:10591000CDF81480FF270497304B0393029019268B
:1059200001962F4D009532234FF4C87296211E2008
:10593000FCF7FEF8CDF8148004972A4B03932388D4
:1059400002930196009532234FF4AF72CA2137209B
:10595000FCF7EEF8238813BB234B01934FF48073BD
:105960000093154B122205210846FBF75BFF8123AC
:1059700005936FF07F430493124B0393002302932C
:105980001C2301934FF47F0300931E231A46052125
:1059900040F2BD10FCF724F8FBF74AFD64E5DBB2EA
:1059A0000093054B1F223221DC20FBF717FFD3E7C2
:1059B00020202000380300200095FF000C0000206C
:1059C000D4770008B4770008F07700080C78000856
:1059D0001078000818251000A84C00201478000842
:1059E00080808000207800082878000800FFFF00F1
:1059F000FBF734FDFBF714FDB748FBF761FD07200B
:105A0000FBF768FD0020FBF7E1FFB44B012283F8B0
:105A10002020B34C2288B34B1A80B348FBF7B4FB69
:105A200080B220804FF00708CDF81480002504953F
:105A3000AE4B03930290192601966FF07F470097B3
:105A400064234FF4CD72AA211E20FCF771F8CDF823
:105A500014800497A64B0393238802930196009524
:105A60003C236E2282211846FCF762F8CDF81480A0
:105A70000497A04B039323880293019600953C233F
:105A80009C228221F020FCF753F82388002B5BD165
:105A9000994C9A4B01934FF4807300932346122242
:105AA0003C212820FBF7BEFE082306936FF07F43BE
:105AB0000593894B049303944FF480630293904CB5
:105AC000E38B0193002300930A234FF4C3725A21FE
:105AD0002820FCF728F9E08BC0F38700FBF75EFA7B
